:100000000C94CD000C94F5000C94F5000C94F500C4
:100010000C94F5000C94F5000C94F5000C94F5008C
:100020000C94F5000C94F5000C9451050C94C0054B
:100030000C94F5000C94F5000C94F5000C94F5006C
:100040000C94F5000C94F5000C94F5000C94F5005C
:100050000C94F5000C94F5000C94F5000C94070535
:100060000C94F5000C9418080C94F2070C94F5000D
:100070000C94F5000C94F5000C94F5000C94F5002C
:100080000C94F5000C94F5000C94F5000C94F5001C
:100090000C94F5000C94F5000C94F5000C94F5000C
:1000A0000C94F5000C94F5000C94F500080B00027C
:1000B0000202000009040000010202000005240001
:1000C0001001052401010104240206052406000193
:1000D0000705810310004009040100020A00000026
:1000E00007050202400000070583024000000403E8
:1000F000090412010002EF02014041233780000190
:100100000102030141726475696E6F204C4C43001B
:1001100041726475696E6F204D6963726F000000F3
:100120000000240027002A002D00300000000000FD
:10013000250028002B002E003100040404040403D1
:100140000405020202020403020202020606060677
:10015000060604040202020404040802011040809E
:10016000401020408040800802040180402010029E
:1001700001108010204040200000000200090F0004
:1001800000030401000C000000000000000000005B
:1001900000000000000000004A0811241FBECFEF3D
:1001A000DAE0DEBFCDBF11E0A0E0B1E0ECE6F3E1C4
:1001B00002C005900D92A23AB107D9F722E0A2EA57
:1001C000B1E001C01D92AE3AB207E1F710E0CDEC0C
:1001D000D0E004C02197FE010E94AE09CC3CD107BB
:1001E000C9F70E9487080C94B4090C940000FC0124
:1001F0008091C001882311F13FB7F89482E0809389
:10020000E9002091F200822F90E01816190614F4EC
:1002100081E090E0882339F0289A44E64093BF01BA
:100220004091F1004083222339F02091F200211106
:1002300003C02BE62093E8003FBF08958FEF9FEFA8
:1002400008952FB7F89483E08093E9009091E80037
:10025000892F807295FF04C09091F20080E4891B81
:100260002FBF08958091B70181110DC082E0809366
:10027000B30184E08093B4011092B6011092B501ED
:1002800081E08093B70183EB91E00895282F30E05F
:10029000F901E858FE4F9491F901E75AFE4F849115
:1002A000265C3E4FF9012491222309F430C09923A2
:1002B000E9F091509F30D0F4E92FF0E0EE59FE4F75
:1002C0000C94AE0990019401710188018C017601B2
:1002D0007601760197019D01A101A501AB0176018F
:1002E000AF01909180009F7790938000E22FF0E023
:1002F000EE0FFF1FE45DFE4FA591B4919FB7F894F8
:10030000EC91611132C080958E238C939FBF08952C
:10031000909180009F7DE8CF90918000977FE4CFFF
:1003200094B59F7794BDE2CF94B59F7DFBCF90911C
:1003300090009F7790939000D9CF909190009F7DEF
:10034000F9CF90919000977FF5CF9091C0009F7763
:100350009093C000CBCF9091C0009F7DF9CF90913A
:10036000C200977F9093C200C1CF8E2BCECF3FB7F4
:10037000F8948091AF019091B001A091B101B0913A
:10038000B20126B5A89B05C02F3F19F00196A11D0B
:10039000B11D3FBFBA2FA92F982F8827BC01CD01CF
:1003A000620F711D811D911D42E0660F771F881F2E
:1003B000991F4A95D1F708958F929F92AF92BF925D
:1003C000CF92DF92EF92FF924B015C010E94B70146
:1003D0006B017C010E94B7016C197D098E099F0990
:1003E000683E734081059105A8F321E0821A9108C7
:1003F000A108B10888EEC80E83E0D81EE11CF11CEC
:1004000081149104A104B10429F7FF90EF90DF90CB
:10041000CF90BF90AF909F908F9008954091A4018E
:100420005091A5012091A2013091A30142175307D9
:10043000B4F49091E8009570E1F39091E80092FD9A
:1004400019C08093F1008091A4019091A5010196BB
:100450008F739927892B19F48EEF8093E800809190
:10046000A4019091A50101969093A5018093A40108
:1004700081E0089580E00895EF92FF920F931F931B
:10048000CF93DF93F82E192FE62E042F81E0860FED
:10049000880F0E940E0283E00E940E02CF2DD12F02
:1004A000EC0EFD2EF11CCE15DF05B9F007FF13C0D1
:1004B000FE0184910E940E02182F80E00E940E021D
:1004C000812321968111EFCFDF91CF911F910F9161
:1004D000FF90EF9008958881EDCF81E0F5CFDF9216
:1004E000EF92FF920F931F93CF93DF93D82E8A0141
:1004F000EB017B01E40EF51ECE15DF0559F0D7FEAA
:1005000012C0FE0184910E940E0221968111F4CF47
:100510000FEF1FEFC801DF91CF911F910F91FF9057
:10052000EF90DF9008958881EECF0F931F93CF93C4
:10053000DF931F92CDB7DEB782E0898342E450E0BB
:100540006CEA70E080E80E946F020E943201DC01D8
:1005500012960D911C910115110589F0D801ED91AC
:10056000FC910280F381E02DBE016F5F7F4FC801D7
:10057000099597FD04C0F80100851185ECCF8981AC
:100580000F90DF91CF911F910F910895615030F03E
:100590002091F100FC0120830196F8CF289A84E68F
:1005A0008093BF010895AF92BF92CF92DF92EF92F6
:1005B000FF920F931F93CF93DF936C017B018B010D
:1005C000040F151FEB015E01AE18BF08C017D1075D
:1005D00059F06991D601ED91FC910190F081E02DE7
:1005E000C6010995892B79F7C501DF91CF911F913C
:1005F0000F91FF90EF90DF90CF90BF90AF90089554
:10060000FC01538D448D252F30E0842F90E0821B18
:10061000930B541710F0CF96089501970895FC019D
:10062000918D828D981761F0A28DAE0FBF2FB11DF5
:100630005D968C91928D9F5F9F73928F90E008954D
:100640008FEF9FEF0895FC01918D828D981731F007
:10065000828DE80FF11D858D90E008958FEF9FEF5B
:100660000895FC01918D228D892F90E0805C9F4F31
:10067000821B91098F739927089581EC91E00E9464
:10068000310321E0892B09F420E0822F089580E0D6
:1006900090E0892B29F00E943D0381110C94000009
:1006A0000895FC01A48DA80FB92FB11DA35ABF4F07
:1006B0002C91848D90E001968F739927848FA68961
:1006C000B7892C93A089B1898C9182748C93938D76
:1006D000848D981306C00288F389E02D80818F7D78
:1006E00080830895EF92FF920F931F93CF93DF9330
:1006F000EC0181E0888F9B8D8C8D981319C0E8895F
:10070000F989808185FF14C09FB7F894EE89FF892D
:100710006083E889F9898081827480839FBF81E04A
:1007200090E0DF91CF911F910F91FF90EF9008958E
:10073000F62E0B8D10E00F5F1F4F0F731127E02E69
:100740008C8D8E110CC00FB607FCFACFE889F989A1
:10075000808185FFF5CFCE010E945103F1CFEB8D53
:10076000EC0FFD2FF11DE35AFF4FF0829FB7F89475
:100770000B8FEA89FB8980818062CFCFCF93DF9393
:10078000EC01888D8823B9F0AA89BB89E889F989A9
:100790008C9185FD03C0808186FD0DC00FB607FCDE
:1007A000F7CF8C9185FFF2CF808185FFEDCFCE0111
:1007B0000E945103E9CFDF91CF9108958F929F92CC
:1007C000AF92BF92CF92DF92EF92FF920F931F935F
:1007D000CF93DF936C017B018A0180910B01882309
:1007E00009F45CC08091C001882309F457C080914E
:1007F000A80180FF05C08091E00082608093E00046
:10080000E801B12C8AEFA82E93E0892E2AE3922EDC
:10081000209711F4BB20D9F10E94210181110AC057
:10082000AA94AA20D9F161E070E080E090E00E94F3
:10083000DC01EECF8C171D0611F00CF08C2F9FB74A
:10084000F8948092E9002091E80025FD02C09FBF46
:10085000DFCF282F30E0C21BD30BF701815020F0EF
:1008600041914093F100FACFE20EF31EBB2021F03C
:100870009092E800B12CEBCF8091E80085FDE7CFA6
:100880009092E800BB24B394209709F3F3CF5D9ACC
:1008900084E68093A701101611063CF081E090E0F9
:1008A000F6019383828310E000E0C801DF91CF91CD
:1008B0001F910F91FF90EF90DF90CF90BF90AF907E
:1008C0009F908F900895CF93DF931F92CDB7DEB79F
:1008D0006983DC01ED91FC910280F381E02D41E020
:1008E00050E0BE016F5F7F4F09950F90DF91CF9170
:1008F000089583E08093E9008091F200882319F045
:100900008AE38093E80008950E94210190E0089511
:10091000CF93DF931F92CDB7DEB7FC018485958519
:1009200097FD08C02FEF3FEF358724870F90DF91A9
:10093000CF910895CE0101960E94F700019719F416
:10094000898190E0F3CF8FEF9FEFF0CF0F931F934C
:10095000CF93DF931F92CDB7DEB78C01FC01848566
:10096000958597FF0BC0CE0101960E94F700019775
:1009700071F4898190E0F80195878487F801848576
:1009800095850F90DF91CF911F910F9108958FEF73
:100990009FEFF1CFFC018485958597FD0BC09FB734
:1009A000F89482E08093E9008091F2009FBF90E08C
:1009B000019608959FB7F89482E08093E9008091B2
:1009C000F2009FBF90E00895FB0101900020E9F73D
:1009D0003197AF01461B570BDC01ED91FC91028072
:1009E000F381E02D09940F931F93CF93DF93EC01D4
:1009F0000E94E4048C0167E371E0CE010E94E404EC
:100A0000800F911FDF91CF911F910F9108951F9239
:100A10000F920FB60F9211242F933F938F939F93B2
:100A2000AF93BF938091AB019091AC01A091AD01C8
:100A3000B091AE013091AA0123E0230F2D3758F574
:100A40000196A11DB11D2093AA018093AB01909343
:100A5000AC01A093AD01B093AE018091AF01909134
:100A6000B001A091B101B091B2010196A11DB11DDB
:100A70008093AF019093B001A093B101B093B20104
:100A8000BF91AF919F918F913F912F910F900FBE8A
:100A90000F901F90189526E8230F0296A11DB11DF7
:100AA000D2CF1F920F920FB60F9211248F939F9364
:100AB0008091E1009091E100937F9093E10083FFAA
:100AC0000FC01092E90091E09093EB001092EC00BF
:100AD00092E39093ED001092C00198E09093F000A3
:100AE00082FF22C093E09093E9009091F200992355
:100AF00019F09AE39093E8009091A701992341F0AF
:100B00009091A70191509093A701911101C05D9818
:100B10009091BF01992341F09091BF019150909322
:100B2000BF01911101C0289884FF18C08091E20094
:100B30008E7E81608093E2008091E1008F7E8093C1
:100B4000E1008091A8018E7E80618093A8019F9131
:100B50008F910F900FBE0F901F90189580FFF7CFC9
:100B60008091E2008E7E80618093E2008091E100BE
:100B70008E7E8093E1008091A8018E7E8160E5CF1A
:100B80001F920F920FB60F921124CF92DF92EF9225
:100B9000FF920F931F932F933F934F935F936F9306
:100BA0007F938F939F93AF93BF93EF93FF93CF93D5
:100BB000DF93CDB7DEB76C97DEBFCDBF1092E900F3
:100BC0008091E80083FF25C068E0CE0145960E9431
:100BD000C60282EF8093E8008D8987FF39C090912B
:100BE000E80090FFFCCF982F907609F034C19E89E1
:100BF0004F89588D2F89F88C911131C0803861F55B
:100C00008091A9018093F1001092F1008EEF809302
:100C1000E8006C960FB6F894DEBF0FBECDBFDF9133
:100C2000CF91FF91EF91BF91AF919F918F917F9164
:100C30006F915F914F913F912F911F910F91FF9075
:100C4000EF90DF90CF900F900FBE0F901F901895F0
:100C50009EEF9093E800C7CF1092F100D5CF91306E
:100C600059F48111D3CF4130510581F68091A9010A
:100C70008D7F8093A901CACF933049F48111C6CFEB
:100C80004130510519F68091A9018260F2CF95306B
:100C900041F48091E80080FFFCCF20682093E300BE
:100CA000B5CF963009F0A9C00B8D1C8D22E01092B3
:100CB000E9001092A5011092A401F2122EC0109228
:100CC000A3011092A2010E9495021F8299E09983CC
:100CD000FA8291E09E8390EA98879AEF9987209113
:100CE000A4013091A501275F3F4F3C832B838D8367
:100CF0001092E9001092A5011092A4011093A30193
:100D00000093A20149E050E0BE016F5F7F4F80E099
:100D10000E946F020E94950279CF1093A301009365
:100D2000A2010E943201DC0112960D911C91011565
:100D3000110509F451C1D801ED91FC910480F581B0
:100D4000E02DBE016B5E7F4FC8010995009709F049
:100D50003EC1F80100851185EACFF3E0FF120EC015
:100D60008F89882309F440C0823061F440E86DE047
:100D700080E191E00E943C02811148CF81E28093A2
:100D8000EB0047CF813029F440E86BE084E091E04C
:100D9000F1CF833099F70E943201DC011296ED9079
:100DA000FC908E010F5F1F4F6801E114F10479F090
:100DB000D701ED91FC910680F781E02DB801C701C4
:100DC0000995080F111DF701E084F184EECFD801D9
:100DD0001C92F60101900020E9F73197BF016C19D0
:100DE0007D0940E0C601C6CF6EEE70E0FB01449184
:100DF00050E080E80E946F0209CF973009F4BECF1F
:100E0000983021F481E08093F10000CF993009F00F
:100E1000FDCE837009F0B2CFEDE0F1E081E031E08A
:100E200096E32191222371F08093E9003093EB0047
:100E3000DF0111972C912093EC009093ED008F5FD0
:100E4000873079F78EE78093EA001092EA008F8965
:100E50008093C001DBCE8B8D9C8D1092E9001092A7
:100E6000A5011092A4019093A3018093A201898D02
:100E7000811192C08E899D89913A49F4813209F09D
:100E80007DCF47E050E064E071E080E0B3CF913285
:100E900009F074CF833269F48F89988DB0E0A0E0B7
:100EA0008093000190930101A0930201B09303018C
:100EB000ADCE803269F48091E80082FFFCCF67E01C
:100EC00084E091E00E94C6028BEF8093E8009ECE02
:100ED000823209F09BCE8F8980930B01EEEFFFE702
:100EE000859194918B3F9C4D51F1E0E0F8E0809129
:100EF000040190910501A0910601B0910701803B8A
:100F00009440A105B105F1F480910B0180FD1AC058
:100F1000EE3F8AE0F80789F587E797E791838083BA
:100F2000809160008093A60188E19BE00FB6F89461
:100F3000A895809360000FBE9093600067CEEEEF9F
:100F4000FAE0D5CF808191818737974709F05ECE4F
:100F5000A895809160008861809360008091A601CF
:100F600080936000EE3F2AE0F20789F08091FE0A4C
:100F70009091FF0A9183808349CE80819181873748
:100F8000980751F29093FF0A8093FE0AC5CF109202
:100F9000FF0A1092FE0A3ACE0E943201DC0112963C
:100FA0000D911C910115110509F4E8CED801ED91C0
:100FB000FC910190F081E02DBE016B5E7F4FC80176
:100FC0000995811123CEF80100851185EBCF181604
:100FD00019060CF41BCED2CEF1E0FF12BECE62EFAA
:100FE00070E004CF1F920F920FB60F9211242F932F
:100FF0003F934F935F936F937F938F939F93AF93A1
:10100000BF93EF93FF9381EC91E00E945103FF9116
:10101000EF91BF91AF919F918F917F916F915F9170
:101020004F913F912F910F900FBE0F901F901895E9
:101030001F920F920FB60F9211242F938F939F93AD
:10104000EF93FF93E091D101F091D2018081E09183
:10105000D701F091D80182FD1BC090818091DA0107
:101060008F5F8F732091DB01821741F0E091DA01ED
:10107000F0E0EF53FE4F958F8093DA01FF91EF91EF
:101080009F918F912F910F900FBE0F901F901895E9
:101090008081F4CFE1ECF1E01382128288EE93E0DC
:1010A000A0E0B0E084839583A683B78327E131E095
:1010B000318320832DEC30E0358724872CEC30E021
:1010C0003787268728EC30E0318B208B29EC30E005
:1010D000338B228B2AEC30E0358B248B2EEC30E0E6
:1010E000378B268B118E128E138E148EEEE5F2E066
:1010F0001382128284839583A683B78389E291E069
:10110000918380838FEF9FEF9587848708957894EC
:1011100084B5826084BD84B5816084BD85B58260FC
:1011200085BD85B5816085BD80916E0081608093AD
:101130006E00109281008091810082608093810016
:101140008091810081608093810080918000816026
:1011500080938000809191008260809391008091C3
:1011600091008160809391008091900081608093D4
:1011700090008091C10084608093C1008091C10083
:1011800082608093C1008091C10081608093C10022
:101190008091C30081608093C3008091C000826011
:1011A0008093C0008091C20081608093C2008091D2
:1011B0007A00846080937A0080917A0082608093C4
:1011C0007A0080917A00816080937A0080917A0021
:1011D000806880937A001092C0011092A901109249
:1011E000A8018091D70081608093D70080EA809326
:1011F000D80089B5806189BD89B5826089BD09B48F
:1012000000FEFDCF61E070E080E090E00E94DC0134
:101210008091D8008F7C80618093D8008091E0001D
:10122000807F8093E0008091E1008E7E8093E100DA
:101230008DE08093E200559A209A5D982898EAE61E
:10124000F1E02491EBE4F1E08491882399F090E0BF
:10125000880F991FFC01E25EFE4FA591B491FC013D
:10126000E45DFE4F859194918FB7F894EC91E22B59
:10127000EC938FBF8FEF9FEF90936B0280936A0286
:101280006AE371E08EE592E00E94F304E091D101FF
:10129000F091D20182E08083E091CD01F091CE0106
:1012A0001082E091CF01F091D0018FEC80831092F9
:1012B000D901E091D501F091D60186E08083E091DB
:1012C000D301F091D401808180618083E091D301CA
:1012D000F091D401808188608083E091D301F09106
:1012E000D401808180688083E091D301F091D401A2
:1012F00080818F7D808364E571E081EC91E00E94C4
:10130000F304C0E0D0E069E771E08EE592E00E946E
:10131000F30466E871E081EC91E00E94F30460E080
:1013200081E10E9446015D9868EE73E080E090E004
:101330000E94DC0161E081E10E9446015D9A68EE55
:1013400073E080E090E00E94DC012097E1F20E94CF
:101350003D038823C1F20E940000D5CFEE0FFF1F8E
:0C1360000590F491E02D0994F894FFCF63
:10136C00FFFFFFFF00E100000000000000C18081D2
:10137C00000000000000007203D3020003BE033122
:10138C00030F032303000000006304DE03840479CD
:10139C0004CA048804A6040D0A00496E69746961C4
:1013AC006C697A652053657269616C204D6F6E694A
:1013BC00746F7200496E697469616C697A65205347
:1013CC00657269616C204861726477617265205541
:1013DC004152542050696E730048656C6C6F2077D5
:1013EC006F726C64210048656C6C6F212043616ED8
:1013FC0020616E79626F64792068656172206D6519
:02140C003F009F
:00000001FF
