:100000000C94A9020C94FA200C94C6020C94C6021B
:100010000C94C6020C94C6020C94C6020C94C60240
:100020000C94C6020C94C6020C9419280C94EB286C
:100030000C9404230C94C6020C94C6020C94C602C1
:100040000C94C6020C94C6020C94C6020C94C60210
:100050000C94C6020C94A8230C94C6020C94C602FD
:100060000C94C6020C94C6020C94C6020C94C602F0
:100070000C94C6020C94C6020C94C6020C94C602E0
:100080000C94C6020C94C6020C94C6020C94C602D0
:100090000C94C6020C94C6020C94C6020C94C602C0
:1000A0000C94C6020C94C6020C94C602820582050A
:1000B000AE05AE05160634064C074C073F06D806BB
:1000C000E906E90658297F29772A7F29772ACB294B
:1000D000EE29772A452A542A35421E001F002000A7
:1000E0002100220001512B0014001A000800150005
:1000F00017002F00290004001600070009000A005D
:100100004B43E1001D001B000600190005004E00D6
:10011000E30057005600556431612A004C002D421F
:100120002700260025002400230001512E00130083
:1001300012000C0018001C003000340033000F00C7
:100140000E000D000B004D43E5003800370036006F
:10015000100011004A004F00520051005000E6000C
:100160002C00280001003A003B003C003D003E000E
:10017000010001001E021F022F02300231020100A5
:100180000100200221022F00300035000100010093
:10019000220223022602270235020100010001008B
:1001A00001000100010001000100000043004200C5
:1001B000410040003F000100000056006100600067
:1001C0005F0054000100000057005E005D005C000D
:1001D00055000100000058005B005A005900000063
:1001E000010000005800630062006200010001008D
:1001F00001000100010001000100010001000000F8
:100200000000ED000000F900000001000000EF0018
:10021000EE00F000FA000000010000000000000005
:1002200000000000000001000000000000000000CD
:10023000F100F200010001000100010001000100D5
:1002400001000100000000000000000000000000AC
:100250000100000000004F0052005100500000005B
:10026000000000000000000000000000010000008D
:1002700000000000000000000100010000003A0042
:100280003B003C003D003E00C65C0000005CCE5CD4
:10029000C35CC45CC75C00000000000000000000FC
:1002A000000000000100000000000000000000004D
:1002B000000000000000000000000000000000003E
:1002C0000000000043004200410040003F00C95CC4
:1002D000000000000000CA5CCB5CC85C00000000AD
:1002E000000000000000000000000100000000000D
:1002F00000000000000000000000000000000000FE
:1003000000000000000000000001010101010101E6
:1003100001010202020202020202020303030303BA
:100320000303030404040404040405050505050689
:100330000606060607070707070808080809090947
:10034000090A0A0A0B0B0B0C0C0C0D0D0D0E0E0EF0
:100350000F0F0F1010111111121213131414151581
:1003600016161717181819191A1A1B1B1C1D1D1EF3
:100370001E1F202021222223242425262627282947
:10038000292A2B2C2D2D2E2F303132323334353675
:100390003738393A3B3C3D3E3F4041424344454675
:1003A0004748494A4C4D4E4F505153545556585951
:1003B0005A5B5D5E5F616264656668696B6C6D6FF8
:1003C0007072737577787A7B7D7E8082838587886B
:1003D0008A8C8E8F91939596989A9C9EA0A2A3A5A5
:1003E000A7A9ABADAFB1B3B5B7BABCBEC0C2C4C6A6
:1003F000C9CBCDCFD1D4D6D8DBDDDFE2E4E7E9EB62
:10040000EEF0F3F5F8FAFDFF2603540068006500EE
:1004100020005200650064006F00780020004B004F
:100420006500790062006F006100720064000000E6
:100430001403460061006C006200610074006500F6
:100440006300680000000403090409023B00020184
:1004500000A0FA09040000010301010009211101B3
:100460000001224000070581030800010904010082
:100470000103000000092111010001227B00070592
:1004800082032000011201000200000008444D44D4
:100490005200010102000105010902A101850209C2
:1004A00001A1000509190129081500250195087504
:1004B0000181020501093009311581257F950275F9
:1004C00008810609381581257F9501750881060583
:1004D0000C0A38021581257F950175088106C0C078
:1004E00005010980A101850319012AB7001501261C
:1004F000B700950175108100C0050C0901A10185A7
:100500000419012AA002150126A002950175108187
:1005100000C005010906A101050719E029E715003A
:10052000250195087501810295017508810105076E
:10053000190029FF150026FF0095067508810005A2
:100540000819012905950575019102950175039119
:1005500001C011241FBECFEFDAE0DEBFCDBF11E036
:10056000A0E0B1E0E6E9F6E502C005900D92A23BFD
:10057000B107D9F723E0A2EBB1E001C01D92A4308E
:10058000B207E1F70E9465160C94492B0C94000009
:1005900081E0089581E008950C94CA0208950C94B6
:1005A000CE021F93CF93DF9300D000D01F92CDB720
:1005B000DEB749835A836B833091B50189819A8173
:1005C000311114C0662359F0222349F00E94890991
:1005D000182F682F89819A810E94320903C00E94D6
:1005E0005D09182F69817A81812F04C00E948909D1
:1005F00069817A810F900F900F900F900F90DF918B
:10060000CF911F910C94AE10FC01262F4081518197
:100610006281738184810C94D10281E00895CF932B
:10062000DF93EC0160E00E940403BE01DF91CF91F3
:100630000C94CF020C941B120C94171208950E9474
:10064000DC070E941E032FEF84E39CE021508040D2
:100650009040E1F700C000000C94CE230F931F934D
:10066000CF93DF938C0161E00E940403EC01B80199
:100670000E94CC02882309F444C0B801CE010E9434
:1006800007208823F1F1B801CE010E94A41C882321
:10069000C1F1B801CE010E94631F882391F1B80116
:1006A000CE010E94EA1B882361F1F8018281882330
:1006B00009F1CB358DE5D807C1F050F4C115FCE543
:1006C000DF0781F0CF3DDC45A9F40E94BA0E19C0C6
:1006D000CC35EDE5DE0761F0CD35DD4559F40E94FE
:1006E000030E08C00E941F030CC00E940C0E02C023
:1006F0000E940F0EC801DF91CF911F910F910C94B2
:10070000C80280E0DF91CF911F910F9108950E9460
:10071000E7220C94A0030E94A3030C94ED220895F9
:100720000C948F0381E008950C9492030895CF9365
:10073000C82F0E9490038C2F0E949403CF9108959C
:1007400080E00C9497030E9425220C9497030E944A
:1007500025229091B401891721F08093B4010C9463
:1007600097030895CF93DF93CDB7DEB72B970FB6DE
:10077000F894DEBF0FBECDBF4F83588769877A8755
:100780008B8761110E944F0D9E012F5F3F4F86E0C6
:10079000F90111928A95E9F785E0FE013796D901B2
:1007A00001900D928A95E1F789819A814C815D8152
:1007B000452B31F09F3F31F491E08F3F19F403C096
:1007C00091E001C090E090FF09C049815A816B819E
:1007D0007C818D819E810E94700C05C0C9010E94A0
:1007E0000D038111F2CF2B960FB6F894DEBF0FBE2A
:1007F000CDBFDF91CF910895FC01808191810E944E
:10080000CB090895CF93882309F4A9C0C82F823853
:10081000C1F40E94252281FDA2C069E380910201FA
:10082000909103010E94BF220E94710D2FEF81EE73
:1008300094E0215080409040E1F700C0000069E35F
:1008400019C0833801F50E94252280FD88C063E528
:1008500080910201909103010E94BF220E94710DBC
:100860002FEF81EE94E0215080409040E1F700C0EE
:10087000000063E580910201909103010E94C12272
:10088000CF910C94710D8438C1F40E94252282FD11
:1008900066C067E480910201909103010E94BF222B
:1008A0000E94710D2FEF81EE94E021508040904026
:1008B000E1F700C0000067E4DDCF8CEF8C0F813AD8
:1008C000F8F48C2F0E941A1F811149C06C2F80915F
:1008D0000201909103010E948922882349F06C2F24
:1008E00080910201909103010E94C1220E94710D2A
:1008F0006C2F80910201909103010E94BF22C0CF12
:1009000080E28C0F883048F4C77081E001C0880F06
:10091000CA95EAF70E94320DB3CFEBE5EC0FE33056
:1009200040F4F0E0E359FE4F808190E0CF910C94C9
:100930005122E8E5EC0FE73150F4F0E0EE0FFF1F35
:10094000E15CFE4F80819181CF910C946722CD3E76
:1009500030F08C2F0E94EA16CF910C94BC17CF91E7
:100960000895882309F464C0823879F40E9425220E
:1009700081FF5EC069E380910201909103010E94B2
:10098000BF220E94710D69E310C08338B1F40E9448
:10099000252280FF4DC063E5809102019091030103
:1009A0000E94BF220E94710D63E580910201909127
:1009B00003010E94C1220C94710D843879F40E94C5
:1009C000252282FF35C067E48091020190910301E6
:1009D0000E94BF220E94710D67E4E7CF9CEF980F41
:1009E000913A10F4682FE1CF90E2980F983050F4CC
:1009F000877091E001C0990F8A95EAF7892F0E94CC
:100A0000380DD9CF9BE5980F933020F480E090E02B
:100A10000C94512298E5980F973120F480E090E0F3
:100A20000C9467228D3E20F00E9445170C94BC1751
:100A300008951F93CF93DF93182FEB010E940204B8
:100A4000209741F08FE99FE00197F1F700C0000087
:100A50002197F6CF812FDF91CF911F910C94B10494
:100A6000893319F060E070E002C060E570E00C943A
:100A70001905882321F00E94320D0C94710D089500
:100A8000882321F00E94380D0C94710D0895CF92A7
:100A9000DF92EF92FF920F931F93CF93DF937C012E
:100AA000D62FC72FFC011281058102950F700E947D
:100AB000280D8823B9F01123A9F08C2F807F803472
:100AC00021F080E28D0F883068F08091AD0282FDC8
:100AD00009C082E00E94D10D0E94280D91E0D82E1D
:100AE000D92601C0D12CCC2EC2948FE0C8228C2DE7
:100AF00090E08C30910508F0CFC1FC01EA5AFF4F1D
:100B00000C94E52A8C2F807FCF70882311F0C2953A
:100B1000C07F112399F0CC2309F4AAC180E28D0F84
:100B2000883010F0D11104C08C2F0E94320D03C008
:100B30008C2F0E94420D0E94710D9AC18D2F0E9430
:100B4000B104CC2309F4A8C180E28D0F883038F1BC
:100B5000DD2329F18C2F0E94480D24C08C2F807F2B
:100B6000CF70803211F0C295C07FDD2319F0D130F3
:100B7000A1F13DC08091AD0282FF17C0112349F061
:100B8000CC2329F08C2F0E94320D0E94710D80E041
:100B900070C180E00E94B104CC2309F47DC18C2F88
:100BA0000E94380D0E94710D77C1112371F000234E
:100BB00041F0013031F40E94520D8C2B0E945A0DED
:100BC0006BC10E94520D8C2B1DC0002319F0013007
:100BD00009F462C10E94670D25C0112321F006307F
:100BE00008F05AC10EC0053008F056C11BC01123D1
:100BF00061F0002331F0F701858180FF39C18F70EA
:100C000085838C2F0E94390547C1002359F0D933C1
:100C100009F03FC1FFEF07EE13E0F1500040104034
:100C2000E1F735C18C2F0E94400536C18C2F869587
:100C30008695837019F0813061F02EC1112321F067
:100C40008D2F9C2F937002C080E090E00E94512273
:100C50002BC1112321F08D2F9C2F937002C080E0B7
:100C600090E00E94672220C18D2F112319F00E946D
:100C7000EA1602C00E9445170E94BC1715C18C2FAE
:100C8000837009F047C011110BC12D2F22952695B5
:100C90002770220F220F6D2F6F70862F90E0A0E03B
:100CA000B0E0022E04C0880F991FAA1FBB1F0A9430
:100CB000D2F7D4FF10C04FE050E060E070E004C015
:100CC000440F551F661F771F2A95D2F74095509500
:100CD0006095709503C040E050E0BA01C695C69596
:100CE000C3708A019B01082B192B2A2B3B2BC901AE
:100CF000B801C23049F058F4C13019F00E944808D8
:100D0000CFC00E943608CCC00E945A08C9C00E94B9
:100D10003408C6C0112319F08C2F817001C086954C
:100D2000882309F4BDC02D2F229526952770220F08
:100D3000220F6D2F6F70862F90E0A0E0B0E0022EA2
:100D400004C0880F991FAA1FBB1F0A94D2F7D4FFB3
:100D500010C04FE050E060E070E004C0440F551F49
:100D6000661F771F2A95D2F740955095609570952C
:100D700003C040E050E0BA01C695C695C3708A0131
:100D80009B01082B192B2A2B3B2BC901B801C23020
:100D900049F058F4C13019F00E940D0981C00E9439
:100DA000FB087EC00E941F097BC00E946E0878C0AD
:100DB000CF70112339F08C2F0E9494088D2F0E9440
:100DC00039056EC08D2F0E9440058C2F0E94B508FA
:100DD00067C0D23F21F128F4D03F41F0D13FC1F0AC
:100DE00043C0D33F19F1D43F79F03EC0112341F005
:100DF000053008F051C08C2F8F710E94DA084CC06A
:100E0000063008F049C0F7CF8091AD0282FF18C0CC
:100E1000112339F08C2F8F710E9494083DC011234B
:100E2000C9F38C2F8F710E94B50836C0112329F0A9
:100E30008C2F8F710E947F082FC00E947A082CC0CF
:100E4000112349F0CF718C2F0E94940863E08C2FFE
:100E50000E94B60D21C081E00E94D10D0230E0F069
:100E600082E00E94D10D18C0112331F0002391F2CD
:100E70008D2F0E94020410C0002399F2D93349F447
:100E80001FEF27EE33E0115020403040E1F700C063
:100E900000008D2F0E94B10488EF8C0D843020F467
:100EA0000E9425220E949703DD20C9F00E94240D94
:100EB00080FD15C0F70112820E941E0D0E94940849
:100EC000C7010E9490070E941E0DDF91CF911F91D4
:100ED0000F91FF90EF90DF90CF900C94B508DF91C9
:100EE000CF911F910F91FF90EF90DF90CF900895D9
:100EF0000F931F93CF93DF93EC01688179818A81EF
:100F00000E94D6098C010E9431090E942208B80172
:100F1000CE010E944705DF91CF911F910F91089557
:100F2000CF93DF93EC01988189812B813C81232B26
:100F300031F08F3F31F481E09F3F19F403C081E02D
:100F400001C080E080FD1DC0CE010E942E038111F2
:100F500010C00E94280D8823A1F08A81882389F07F
:100F60008091AD0282FD0DC082E0DF91CF910C94A3
:100F7000D10DCE010E947807CE01DF91CF910C9464
:100F80000F03DF91CF91089580E090E00E945122FD
:100F900080E090E00E9467220E944F0D0E94710D38
:100FA0000E94ED180C94BC178091020190910301EE
:100FB0000E94C3220C94C4070E943F0D0C94D407D6
:100FC00092959F70963079F010F4925001C09A502B
:100FD000923068F4803F69F018F4883E40F409C00C
:100FE000843F29F406C0883E20F0813F11F080E064
:100FF000089581E00895FC01808191810E94CB09D0
:101000000E94E0070895CF93DF9300D000D01F9295
:10101000CDB7DEB70F900F900F900F900F90DF912C
:10102000CF910895CF93DF9300D000D000D0CDB7FB
:10103000DEB726960FB6F894DEBF0FBECDBFDF91A8
:10104000CF910895089508950C9423080C942408D2
:101050000E9426086093E7017093E8018093E901FC
:101060009093EA010C94C4070C9428080F931F93E3
:101070000091E7011091E8012091E9013091EA0126
:10108000602B712B822B932B1F910F910C942808AE
:101090000F931F930091E7011091E8012091E9015E
:1010A0003091EA0160237123822393231F910F91D2
:1010B0000C9428080F931F930091E7011091E80109
:1010C0002091E9013091EA01602771278227932757
:1010D0001F910F910C9428080C9423080E946C080F
:1010E0006093E3017093E4018093E5019093E6013E
:1010F0000C94C40760E070E0CB010C946E080F9371
:101100001F9341E050E060E070E08A019B0104C061
:10111000000F111F221F331F8A95D2F7C901B80192
:101120001F910F910C946E080F931F9341E050E0B4
:1011300060E070E004C0440F551F661F771F8A955A
:10114000D2F78091E3019091E401A091E501B09183
:10115000E6018A019B01082B192B2A2B3B2BC90185
:10116000B8011F910F910C946E080F931F9341E0EB
:1011700050E060E070E004C0440F551F661F771F09
:101180008A95D2F740955095609570958091E301CE
:101190009091E401A091E501B091E6018A019B01E3
:1011A000082319232A233B23C901B8011F910F915A
:1011B0000C946E080F931F9341E050E060E070E0E4
:1011C00004C0440F551F661F771F8A95D2F7809180
:1011D000E3019091E401A091E501B091E6018A015B
:1011E0009B01082719272A273B27C901B8011F910E
:1011F0000F910C946E080F931F930091E3011091CF
:10120000E4012091E5013091E601602B712B822BE6
:10121000932B1F910F910C946E080F931F930091C5
:10122000E3011091E4012091E5013091E601602392
:101230007123822393231F910F910C946E080F93B7
:101240001F930091E3011091E4012091E501309199
:10125000E60160277127822793271F910F910C9435
:101260006E08089527E0929F800D1124E82FE695DF
:10127000E695E695877051E001C0550F8A95EAF72B
:1012800085E0E89FF0011124EA54FE4F20E030E0B1
:1012900070E04081CB01022E02C0969587950A949A
:1012A000E2F78170819584278523842781932F5FBE
:1012B0003F4F2530310569F7089527E0929F800D53
:1012C0001124682F669566956695982F977085E02E
:1012D000689FB001112440E050E080E0FB01E40F82
:1012E000F51FEA54FE4F208130E0092E02C03695EA
:1012F00027950A94E2F721703327042E01C0220FAC
:101300000A94EAF7822B4F5F5F4F4530510531F762
:101310000895BF92CF92DF92EF92FF920F931F93A7
:10132000CF93DF938C01C090E301D090E401E09073
:10133000E501F090E6018091E7019091E801A0912C
:10134000E901B091EA01C82AD92AEA2AFB2ACFE1A9
:10135000D0E0D701C6010C2E04C0B695A79597958D
:1013600087950A94D2F780FD04C0219790F7B12C9D
:1013700007C0BC2EB8018C2F0E94C1100197A9F3A1
:101380008B2DDF91CF911F910F91FF90EF90DF9008
:10139000CF90BF900895CF93DF93EC010E9489090D
:1013A000BE010E94C110DF91CF9108951F93CF938A
:1013B000DF93EB019091B501992321F0CB010E94BD
:1013C000CB0913C0882349F0CB010E948909182F4B
:1013D000682FCE010E94320904C0CB010E945D0932
:1013E000182FBE01812F0E94C110DF91CF911F9154
:1013F00008951F93CF93DF93C091EB0116E0809186
:10140000EC01C81799F0D0E01C9FF0011D9FF00D72
:101410001124E351FE4F40815181628173818481A7
:1014200095810E9412082196C770E9CFDF91CF9174
:101430001F91089540911D0250911E0260911F025C
:101440007091200280912102909122020C94120846
:10145000EF92FF920F931F93CF93DF93809122021D
:1014600082958F7009F065C080911F02882309F46E
:1014700060C08091EB01F090EC0110911D02009191
:101480001E02609120027091210291E01F3F09F03D
:1014900090E0C0910001D0910101292F96E0E92E42
:1014A0008F1509F446C06115710521F00F3F21F039
:1014B00030E003C031E001C0322F90E030FD36C093
:1014C000E89EF001E99EF00D1124DF01A351BE4F0B
:1014D00011963C911197301329C03C91311326C0CD
:1014E00012963C911297311121C013964D915C9147
:1014F0001497461B570B4C175D07C0F480912202CE
:101500008F70806180932202EE50FE4F80818F7039
:10151000806180838DE192E00E949007DF91CF91FE
:101520001F910F91FF90EF900C94F909019687702D
:10153000B7CFDF91CF911F910F91FF90EF9008955A
:101540009F92AF92BF92CF92DF92EF92FF920F9352
:101550001F93CF93DF93CDB7DEB761970FB6F894A3
:10156000DEBF0FBECDBF8C0185E0F801DE011D9608
:1015700001900D928A95E1F7D8011296EC90909126
:101580001D02E0911E0220912002309121022115BE
:10159000310531F0EF3F31F481E09F3F19F403C092
:1015A00081E001C080E0B82FB1709B2E80FD47C163
:1015B000D8014C9111965C9111971396AD90BC9007
:1015C00014978DE1C82E82E0D82EF0901F02B5014D
:1015D000621B730B2091000130910101FF2009F47F
:1015E000D9C0809122026217730708F095C0282F96
:1015F000207F09F052C05E1313C0491311C0FE2CA6
:10160000E1100EC08F708061809322020E941A0A3E
:10161000C6010E94900780912202F80185834DC186
:10162000AB2831F05F3F31F481E04F3F19F403C044
:1016300081E001C080E080FD03C081E08E2502C012
:1016400080E090E0F82FF170FF2E80FF1CC08091A9
:10165000EB012091EC0136E0821709F40BC190E018
:10166000389FF001399FF00D1124E351FE4F618145
:10167000561306C06081461303C06281E61203C0A0
:1016800001968770E9CFFE2CEE2009F416C18091F7
:10169000220281608093220254C05E1306C0491367
:1016A00004C0E11002C0F80199C0C8010E94FB0704
:1016B000882361F1EE2051F120912202822F829540
:1016C0008F7090E0029774F080911D0290911E023D
:1016D00098878F831986BB86AA862C87CE010796AA
:1016E0000E94900786E0F801ADE1B2E001900D9212
:1016F0008A95E1F70E94280A0E941A0A0AC05E171A
:1017000011F1C8010E94FB0781112CC0C8010E9481
:101710009007FF24F394D1C0282F207F81F77A2DE2
:10172000B98AA88A6E2D89890E9403088DE192E00A
:101730000E94900786E0D6011D928A95E9F70E94E3
:101740001A0AF12CBAC04913DCCFE110DACFF80144
:101750008583C8010E94900786E0D6011D928A9574
:10176000E9F7ABC0EE2091F220912202822F829500
:101770008F7090E002970CF4B5CF80911D0290918C
:101780001E029A8389831B82BD82AC822E83CE0186
:101790000196A6CF6217730708F044C0FE2CEE2016
:1017A00009F4B4CF5E1330C049132EC02091220239
:1017B00020FD21C0822F82958F70482F50E0411567
:1017C0005105C9F0F80125834F30510541F08F5F75
:1017D000982F9295907F822F8F70892B8583C801D7
:1017E0000E94900786E0F801ADE1B2E001900D9211
:1017F0008A95E1F73CC086E0F801ADE1B2E00190E6
:101800000D928A95E1F759C0C8010E94FB0781112A
:1018100069CF80912202816080932202C8010E94D8
:1018200090074BC07A2DB98AA88A6E2D89890E94AB
:10183000030886E0D6011D928A95E9F718C0EE20CC
:1018400009F464CFC8010E94FB07F82E882309F42D
:101850005DCF86E0F801ADE1B2E001900D928A958E
:10186000E1F78DE192E00E94FC030E94280A0E94A9
:101870001A0A23C04D875E878D859E850E94CB09FD
:10188000292F22952F70223028F49F7039F0811172
:1018900005C00BC0243028F49F7049F4805E883066
:1018A00020F0C8010E9490079F2CF92C06C0D80197
:1018B00015969C91907F91F7F8CF8F2D61960FB67A
:1018C000F894DEBF0FBECDBFDF91CF911F910F9176
:1018D000FF90EF90DF90CF90BF90AF909F900895D2
:1018E0001F93CF93DF93CDB7DEB72C970FB6F89445
:1018F000DEBF0FBECDBF4F83588769877A878B873E
:101900009C87CE0107960E94A00A8823D1F09F8170
:1019100088852A853B85232B31F08F3F31F481E088
:101920009F3F19F403C081E001C080E080FD47C003
:101930004F81588569857A858B859C850E94120820
:101940003EC086E0FE013796DE01119601900D92B1
:101950008A95E1F7FF81E8856A857B8561157105C8
:1019600031F0EF3F31F481E0FF3F19F403C081E033
:1019700001C080E080FD23C02091EC0130E0C9016E
:101980000196877099274091EB0150E084179507E5
:10199000F1F1F983EA837D836C8396E0929FD00115
:1019A000939FB00D1124A351BE4FFE0131960190BB
:1019B0000D929A95E1F78093EC010E94F90916E0E7
:1019C0008091EB019091EC01891771F1189FC00192
:1019D000112483519E4F0E94A00A882329F1E0918F
:1019E000EB011E9FF0011124E351FE4F4081518114
:1019F00062817381848195810E9412088091EB013C
:101A000090E00196877099278093EB01D9CF0E94CF
:101A1000DC071092EC011092EB01EDE1F2E086E0C0
:101A2000DF011D928A95E9F72C960FB6F894DEBF78
:101A30000FBECDBFDF91CF911F91089580912B02F2
:101A4000859585958595089580912B0287700895D9
:101A500090912B02977081E009F480E008958091C5
:101A60003602089590913602892B809336020895AC
:101A700080959091360289238093360208951092C2
:101A80003602089590913502892B8093350208958E
:101A900080959091350289238093350208951092A4
:101AA0003502089580912C02089508950C94550DE7
:101AB0000C94560D9091AD0292FD08C090912C02AD
:101AC000981721F080932C020C94580D0895809162
:101AD0002C02882329F010922C0280E00C94580DDF
:101AE0000895CF93DF93E0910201F091030180917B
:101AF00036028083E0910201F09103019081809190
:101B00003502892B808380912C02882381F0E0911B
:101B10000201F09103019081892B80838091020161
:101B2000909103010E947D2281110E94670DC09156
:101B30000201D091030148E050E063E272E0CE017F
:101B40000E94EB2A892B69F088E0FE01A3E2B2E053
:101B500001900D928A95E1F7CE01DF91CF910C941F
:101B60003822DF91CF9108950C94550D9091AD02DC
:101B700092FD10C098E0899F90011124262B20939C
:101B80002B020E94940880912B028595859585955E
:101B90000C94B40D0C94940810922B0280E00C94D9
:101BA000B40D20912B028095822380932B02982FD5
:101BB000977099F430E0482F082E000C550B24172D
:101BC000350759F09091AD0292FD07C08595859536
:101BD00085950E94B5080C94CC0D08959091AD02A6
:101BE00092FB222720F9281769F080FB92F9909345
:101BF000AD028091AC029091AD020E94360E82E05F
:101C00000C94D10D08958091AD0282FB882780F954
:101C100091E089270C94EE0D81E00C94EE0D80E0AC
:101C20000C94EE0D80E090E00E940F2B21E0893EA5
:101C30009E4F09F020E0822F089582E090E00C94FE
:101C4000012B83E090E00C94012BCF9384E090E093
:101C50000E94012BC82F82E290E00E94012B2C2FC2
:101C600030E0A901582BCA01CF910895CF93C92F15
:101C7000682F84E090E00E94152B6C2F82E290E0A8
:101C8000CF910C94152BAB01BC018FE090E00C942C
:101C9000272BAB01BC0183E190E00C94272B60E083
:101CA00070E0CB010C94490E60E070E0CB010E9423
:101CB000430E0C944F0E69EE7EEF80E090E00E94A0
:101CC000332B60E082E090E00E94152B60E083E01F
:101CD00090E00E94152B1092E7011092E8011092FB
:101CE000E9011092EA0160E084E090E00E94152B87
:101CF00060E082E290E00E94152B60E085E090E0D9
:101D00000E94152B60E086E090E00E94152B6FEF9B
:101D100087E090E00E94152B40E050E0BA0188E097
:101D200090E00E94272B60E08DE090E00E94152B50
:101D300040E050E0BA0188E190E00E94272B60E08B
:101D400087E190E00E94152B40E050E0BA018CE161
:101D500090E00E94272B60E070E080E290E00E941B
:101D6000332B40E050E0BA0188E190E00E94272B3D
:101D70000C94540E0C945B0E682F8EE090E00C9443
:101D8000152B0E9471236093450270934602809345
:101D900047029093480260934102709342028093FD
:101DA000430290934402089585B7806885BF85B744
:101DB000806885BF08950C94CF1308950C94DD0EB0
:101DC0000C94DD0E0C94E00E0C94DD0E0C94E40EDD
:101DD0000C94DD0E0E94D40E8EED91E10E941B2228
:101DE0000E94E80E0C94E60E0E94DE0E0C94DD0EAE
:101DF0000E94E1110C9496030E945C230E949D11A5
:101E00000E94E9130E9420130E94F80E0E948C1C6D
:101E10000E94711B0E94F3130C94E20E8F929F920A
:101E2000AF92BF92CF92DF92EF92FF920F931F93E8
:101E3000CF93DF93CDB7DEB72A970FB6F894DEBF06
:101E40000FBECDBF0E944413982E81110E94C10E77
:101E500087E3A82E82E0B82E00E010E0802E802FCD
:101E60000E940512D82EF501C1905F01C826B1F479
:101E70000F5F1F4F0A30110589F78FEF89838A831F
:101E80001B820E9465238160782F9D838C8349810A
:101E90005A816B818D810E94B2032FC080914902CB
:101EA00081FD0E940B12E12CFF24F3948C2D8F21D5
:101EB000F1F00E94DB0E882399F0EE828F82DF2002
:101EC00081E009F480E088870E9465238160782F93
:101ED0009A8789874E815F8168858A850E94B203CF
:101EE000F801E95CFD4F8081F826F08206C0E3949A
:101EF000FF0CF7E0EF12DACFBBCF81E0911001C009
:101F000080E02A960FB6F894DEBF0FBECDBFDF91FA
:101F1000CF911F910F91FF90EF90DF90CF90BF90E6
:101F2000AF909F908F9008950E940E0F0E94CF1344
:101F30000E94DA170C94A703CF93DF930E94C61078
:101F4000EC01811521E5920708F045C0811530E5C7
:101F5000930708F094C0883E910528F5803E9105CE
:101F600008F0F8C0883A910570F4853A910508F0B8
:101F70007CC08130910509F475C008F4E8C004976D
:101F800008F0E8C0E4C08F3B910508F0E0C0C85AF3
:101F9000D0E0CC0FDD1FC059DE4F0990D881C02D95
:101FA000CE019464D8C0811540E2940758F481159D
:101FB00051E0950708F0CEC08D3E910508F4C7C0EA
:101FC0009065C9C0C11580E4D80708F4C0C0DF70AF
:101FD000CE01906AC0C0811525E59207A8F481154D
:101FE00034E5930708F095C0811543E5940708F0A0
:101FF0007BC0811552E5950708F061C0D82FCC272A
:10200000CE01816F906AA7C0C11589E5D807A0F4F9
:10201000C11528E5D20708F082C0C11536E5D307FF
:1020200008F095C08C2F0E945A118F7190E0D82F24
:10203000CC27CE0190628FC0C1154AE5D40708F4C1
:1020400074C0CE0190568115904208F080C08D2F4B
:102050008F710E945A11DD27D0628F71AE01582B0B
:10206000CA0179C081E090E076C0C55AD0E0C2567E
:10207000DE4F8881C82FD0E0CE0190646CC074E040
:10208000969587957A95E1F7282F23703C2F33702A
:1020900081E090E002C0880F991F3A95E2F79C68B2
:1020A000AC01522B9A019C2F9F709695969550E209
:1020B000959FE0011124C9018C2B9D2B4CC083708E
:1020C000992721E030E002C0220F331F8A95E2F702
:1020D0009C2F9695969580E2989FE0011124C22B43
:1020E000D32BCE019C6837C08370992721E030E064
:1020F00002C0220F331F8A95E2F79C2F9695969582
:1021000040E2949FE0011124C22BD32BCE019A68A8
:1021100022C0D82FCC27CE01846F906A1CC0DC2F40
:10212000CC27CE01806F906A16C08C2F8F700E94D2
:102130005A1194E0D695C7959A95E1F7CF70D0E003
:10214000DC2FCC27D0699E01282BC90104C080E078
:1021500090E001C0CE01DF91CF91089526E4829FE7
:10216000C0011124FC0127E0729FE00DF11D112434
:10217000E60FF11DEE0FFF1FE852FF4F859194917E
:1021800008950E94AE100E949C0F08958238910518
:1021900069F1B0F48133910509F46DC048F48932D6
:1021A000910509F463C08A32910509F469C0089564
:1021B0008533910509F455C089339105B9F0089527
:1021C000833E910569F138F4803E9105B1F0823E7D
:1021D000910509F10895863E9105A9F1873E910583
:1021E000B9F1843E910509F064C023C02091AC028E
:1021F00020FD4FC021FD4DC008958091AC0280FDAF
:1022000044C08091AD0280FF44C08091AC0284FD47
:1022100042C083EE4DC08091AC0282FF38C0F5CF42
:102220008091AC0282FD33C08091AD0280FD31C04F
:10223000ECCF8091AD0281FF32C08091AC0284FD71
:102240002AC087EE35C08091AC0283FF26C0F5CF4F
:102250008091AC0283FD21C08091AD0281FD1FC041
:10226000ECCF8091AC0285FD1CC01DC08091AC02FA
:1022700085FD19C016C08091AC0286FD16C017C03E
:102280008091AC0286FD13C010C089E311C082EEBC
:102290000FC080EE0DC080E00BC086EE09C084EE5A
:1022A00007C089E205C085E303C08AE201C081E37B
:1022B00090E008959091AC0292FF0DC0282F2871F4
:1022C000283019F4877F846006C0282F24712430B9
:1022D00011F48B7F886093FF0DC0282F287128315F
:1022E00019F4877E846106C0282F2471243111F4EB
:1022F0008B7E88612091AD0220FF0DC0382F387190
:10230000383019F4877F816006C0382F3171313041
:1023100011F48E7F886021FF0DC0282F287128318D
:1023200019F4877E816106C0282F2171213111F4B3
:102330008E7E886194FD877E08951092A802109287
:10234000A9021092AA021092AB020895CF92DF92D6
:10235000EF92FF926B017C010E94CF1381110EC09E
:102360000E947123C61AD70AE80AF90AC092A80285
:10237000D092A902E092AA02F092AB02FF90EF90F5
:10238000DF90CF9008950F931F930E94CF1388235F
:1023900021F01F910F910C9471230E9471230091E1
:1023A000A8021091A9022091AA023091AB02600FFD
:1023B000711F821F931F1F910F91089580E0089550
:1023C00008950E94120E811102C00E94BA0E0E944E
:1023D0001D0E809349020E94250E9093AD028093BA
:1023E000AC020E94E0110E94210E682F70E080E094
:1023F00090E00E9434086091E3017091E4018091C3
:10240000E5019091E6010C946C08E82FF0E0E754A8
:10241000FD4F80810895089580EA8A95F1F7089527
:1024200000C008950C940C1208950C9414120C948E
:1024300015120C9414120C9419120C941412FF928D
:102440000F931F93CF93DF9300D000D01F92CDB78F
:10245000DEB70E94CF136091C3028823E9F185E0C3
:10246000F82E8E010F5F1F4FF8018F2D11928A9564
:10247000E9F7862F90E0B80187549D4F0E94011420
:10248000882389F08091AE0290E045E050E0B801E9
:1024900087549D4F0E94EB2A21E020934A02892B0A
:1024A00061F410E016C080914A028823D1F3F8014C
:1024B0001192FA94E9F710924A02A091AE02B0E0AC
:1024C000A754BD4F85E0F80101900D928A95E1F780
:1024D00011E00E941C030DC070E067547D4F809195
:1024E000AE0290E087549D4F0E948B140E941D12F3
:1024F00010E0812F0F900F900F900F900F90DF91B1
:10250000CF911F910F91FF900895F894E82FE295D5
:10251000EF70F0E031A1282F2F7081E090E001C032
:10252000880F2A95EAF7982F9095932391A392A16B
:10253000892B82A3789408950F931F93CF93DF93F1
:10254000C8EAD1E089918F3F11F00E94851281E0A5
:10255000CD3AD807B9F7C1EAD1E008EA11E089918C
:102560008F3F11F00E9485120C171D07C1F7DF91F4
:10257000CF911F910F910895CF92DF92EF92FF922A
:102580000F931F93CF93DF938C01C62FD0E0CE0122
:1025900088559E4F7C01FC0190819F3F09F447C004
:1025A000D62EF894E92FE295EF70F0E081A19F70AC
:1025B00021E030E001C0220F9A95EAF7822B81A337
:1025C00082A12095282322A378940E941012E1EA88
:1025D000F1E048EA51E031E0C12C21912F3F89F030
:1025E000A22FA295AF70B0E090968C9190E02F70E2
:1025F00002C0959587952A95E2F780FD02C0832F4A
:1026000001C080E0C82A330F4E175F0731F7F7018A
:1026100080818F3F11F00E94851261E0C11001C0DE
:1026200060E08D2D0E941212C00FD11FC882DF9171
:10263000CF911F910F91FF90EF90DF90CF90089571
:102640008091040180910401811102C095E001C0D4
:1026500090E09093C30285E0891B8093AE020E94B4
:102660009C128AE0E9EBF2E0DF01982F1D929A9527
:10267000E9F7EFEAF2E0DF011D928A95E9F785E0DC
:102680000E9498130C941A03EF92FF920F931F93DA
:10269000CF93DF93CDB7DEB72A970FB6F894DEBF9E
:1026A0000FBECDBF8E010F5F1F4F8AE0F801119260
:1026B0008A95E9F7F12C6F2DC8010E94BC12F394A2
:1026C000F5E0FF12F8CF4AE050E0B8018FEA92E05F
:1026D0000E94EB2A7C0121E0892B09F420E0E1141F
:1026E000F10441F08AE0F801AFEAB2E001900D9206
:1026F0008A95E1F76091C30270E067547D4F45E031
:102700008FEA92E00E949913EF2819F40E941F1299
:1027100002C081E090E02A960FB6F894DEBF0FBEAB
:10272000CDBFDF91CF911F910F91FF90EF90089552
:102730000895FF920F931F93CF93DF938C01F62E92
:10274000D72FC42F222349F081E080934D020E94AD
:10275000652390934C0280934B0280914D02882315
:10276000C1F080914B0290914C020E947D2305970D
:1027700080F0EF2DFD2FD8014C2F50E0CD01801BB4
:10278000910B841795071CF48D918193F7CF1092CC
:102790004D02DF91CF911F910F91FF90089580918D
:1027A000500281110DC00E94B02A811102C082E046
:1027B00001C081E080935002823011F40E94AB2A64
:1027C00081E090915002913009F080E008950C94DE
:1027D000CF130E94E713809304010E94CF1381114D
:1027E0000C94391408950E94CF13811102C00C94E7
:1027F0003B14089581E0909151029A3008F080E0F6
:1028000008950F931F93CF93DF93EC018B01809179
:1028100051028A3038F4B801CE010E948914811126
:102820001DC00AC080914E0290914F020E947D23EC
:10283000843F914080F715C0809151028F3F19F07D
:102840008F5F80935102809151028A3060F00E9424
:10285000652390934F0280934E0203C01092510261
:1028600002C080E001C081E0DF91CF911F910F9104
:1028700008950C94B4200C94B720DF92EF92FF924D
:102880000F931F93CF93DF937901C82F880FDD0B30
:1028900041155105A9F0FE0193E0EE0FFF1F9A9537
:1028A000E1F7EB5FFE4F818192818E5A9D4F20812F
:1028B00030E04217530708F49A01A9010E94F82A50
:1028C000CE010E94A021D82E8823D1F00115110538
:1028D000B9F083E0CC0FDD1F8A95E1F7FE01EB5FD5
:1028E000FE4F438150E00417150708F4A801CB5FA1
:1028F000DE4F6C817D816E5A7D4FC7010E94F82AA0
:102900008D2DDF91CF911F910F91FF90EF90DF9070
:1029100008950C94F0150C9414160F931F93CF93F5
:10292000DF9300D000D0CDB7DEB760917102709117
:10293000720280917302909174020E948C2364361B
:1029400071058105910528F10E94C311DC01CB01BD
:102950000296A11DB11D89839A83AB83BC8300E0DD
:1029600010E020E030E044E050E0BE016F5F7F4FB8
:1029700082E00E943D14182F882361F00E94712389
:102980006093710270937202809373029093740249
:1029900001C011E0812F0F900F900F900F90DF91E9
:1029A000CF911F910F910895AF92BF92CF92DF9276
:1029B000EF92FF920F931F93CF93DF937C015B0104
:1029C0006A010E94FA13811103C001E010E002C005
:1029D0000AE010E0C1E0D0E0F894B501C701F601CB
:1029E00009957894811115C021960C171D0794F054
:1029F000CC9F9001CD9F300D300D112480E090E0F0
:102A000045E34A95F1F70000019682179307C1F755
:102A1000E3CF81E0DF91CF911F910F91FF90EF9075
:102A2000DF90CF90BF90AF9008950F931F93CF93F7
:102A3000DF93CDB7DEB728970FB6F894DEBF0FBE91
:102A4000CDBFCE0101960E94AA1B18856091750228
:102A50007091760280917702909178020E948C2387
:102A6000643671058105910510F41123D9F000E059
:102A700010E020E030E048E050E0BE016F5F7F4FA3
:102A800083E00E943D14882359F00E9471236093D3
:102A9000750270937602809377029093780202C059
:102AA00080E003C00E94A71B81E028960FB6F8942F
:102AB000DEBF0FBECDBFDF91CF911F910F91089563
:102AC000AF92BF92CF92DF92EF92FF920F931F933C
:102AD000CF93DF9300D000D000D0CDB7DEB77B011D
:102AE000C090AD01D090AE0101E010E09E012A5FE0
:102AF0003F4F40E050E060E070E080E00E943D1415
:102B0000182F882309F43EC056018FEFA81AB80A7F
:102B100060916D0270916E0280916F0290917002CF
:102B20000E948C23643671058105910518F105E03A
:102B300010E09E012F5F3F4F40E050E060E070E00A
:102B400081E00E943D14182F65E070E0C5010E94ED
:102B50008D1C91E02E81281390E0192339F10E94F9
:102B6000712360936D0270936E0280936F02909355
:102B7000700211C065E070E0C5010E948D1C9E814D
:102B80008913D5CF85E0F6013196DE0111960190CB
:102B90000D928A95E1F7112349F085E0FE01319607
:102BA000A8E6B2E001900D928A95E1F785E0E8E6AB
:102BB000F2E0D70101900D928A95E1F7812F2696D8
:102BC0000FB6F894DEBF0FBECDBFDF91CF911F913E
:102BD0000F91FF90EF90DF90CF90BF90AF9008954E
:102BE0000F931F93CF93DF93EC018B0140E655E1E8
:102BF0000E94D414882391F04DE854E1B801CE012D
:102C00000E94D414882351F045E155E1B801CE016A
:102C1000DF91CF911F910F910C94D41480E0DF913C
:102C2000CF911F910F9108950F931F93CF93DF932F
:102C3000F894C091AD01D091AE01CE01019625E08E
:102C4000FB01DC0101900D922A95E1F765E070E04F
:102C50000E948D1C88837894F8946E817F8188858A
:102C6000998500916402109165022091660230916D
:102C70006702601771078207930751F0609364023F
:102C80007093650280936602909367020E94A6117A
:102C90007894F8948989882331F060E0CE010A960F
:102CA0000E94BD1B198A7894DF91CF911F910F91DB
:102CB00008950E9471250E94FC0E0C947D250E94AF
:102CC00081250E94940F0C949B250E9403230E944F
:102CD00058250E94EA0E0E9459160E945F160E9413
:102CE000F40EFBCF80917F0280FF06C060912A0125
:102CF00070E0660F771F26C081FF04C060912A0133
:102D000084E005C082FF07C060912A0188E0689FC7
:102D1000B001112417C090917E029923D1F06091E7
:102D20002901961788F720912A0188E0289F9001B1
:102D30001124929FA001939F500D112470E0CA01AD
:102D40000E94D12A6038710540F46115710519F4AB
:102D500006C068E070E0862F08958FE7089581E04F
:102D6000089580917F0280FF08C06091260170E085
:102D7000759567957595679521C081FF06C060912F
:102D8000260170E07595679519C082FF04C06091B7
:102D9000260170E010C090917D02992399F0609116
:102DA00025019617A0F780912601899FC001112463
:102DB00070E00E94D12A6038710540F461157105F8
:102DC00019F406C061E070E0862F08958FE708953A
:102DD00081E008958D3E21F40E947216819504C011
:102DE0008E3E29F40E9472168093830208958F3ECE
:102DF00021F40E947216819504C0803F29F40E943C
:102E00007216809382020895893F19F40E94B116C8
:102E100005C08A3F31F40E94B116819580938402E7
:102E200008958B3F21F40E94B116819504C08C3F18
:102E300029F40E94B1168093850208959FE0980FAF
:102E4000983078F421E030E0A90102C0440F551F0A
:102E50009A95E2F7CA0190918102892B80938102B1
:102E600008958D3F21F480917F0281600BC08E3FD9
:102E700021F480917F02826005C08F3F29F4809108
:102E80007F02846080937F0208958D3E39F4909193
:102E9000830297FF35C01092830259C08E3E29F4F9
:102EA000909183021916BCF32BC0909182028F3E41
:102EB00029F497FF25C01092820249C0803F19F47F
:102EC0001916CCF31DC090918402893F29F419167C
:102ED000BCF4109284023BC08A3F19F497FF10C0E3
:102EE000F8CF8B3F39F49091850297FF09C010927B
:102EF00085022DC08C3F21F4909185021916BCF3F8
:102F00009FE0980F983080F421E030E0A90102C0E2
:102F1000440F551F9A95E2F7CA018095909181025E
:102F200089238093810213C08D3F21F480917F0219
:102F30008E7F0BC08E3F21F480917F028D7F05C074
:102F40008F3F29F480917F028B7F80937F02809155
:102F50008202811106C080918302811102C0109209
:102F60007E0280918402811106C0809185028111C8
:102F700002C010927D0208950E9465232091820272
:102F8000211104C020918302222321F090937C021E
:102F900080937B0220918402211104C0209185023C
:102FA000222321F090937A028093790280E892E0C4
:102FB0000C944322EF92FF920F931F93CF93DF93D2
:102FC00000D000D000D0CDB7DEB786E0E0E8F2E078
:102FD000DE01119601900D928A95E1F7E090820250
:102FE000F090830200918402109185021092820277
:102FF000109283021092840210928502E11003C0A5
:10300000FF2009F45DC080917B0290917C020E94B8
:103010007D23AC0190917E02992339F020912B0100
:1030200030E02417350758F04BC020912C018AE07E
:10303000289F900111242417350718F041C09F3FA5
:1030400019F09F5F90937E02EE2061F00E9472164D
:103050001E1414F09FEF01C091E0989F902D112451
:1030600090938202FF2061F00E9472161F1414F0E8
:103070009FEF01C091E0989F902D112490938302BF
:10308000309182023323E1F0209183022223C1F0A8
:1030900045EB3403C0011124992319F09093820267
:1030A00003C081E08093820235EB2303C001112429
:1030B000992319F09093830203C081E080938302E7
:1030C000011103C0112309F45DC080917902909130
:1030D0007A020E947D23AC0190917D02992339F000
:1030E0002091270130E02417350758F04BC020917C
:1030F00028018AE0289F900111242417350718F031
:1031000041C09F3F19F09F5F90937D02002361F0C3
:103110000E94B116101614F09FEF01C091E0989F25
:10312000902D112490938402112361F00E94B11616
:10313000111614F09FEF01C091E0989F902D11247B
:1031400090938502309184023323E1F0209185022F
:103150002223C1F045EB3403C0011124992319F057
:103160009093840203C081E08093840235EB2303B3
:10317000C0011124992319F09093850203C081E0C6
:10318000809385028091820281110BC0809183021D
:10319000811107C080918402811103C08091850252
:1031A00081110E94BC17EB82FC820D831E8386E096
:1031B000FE013196A0E8B2E001900D928A95E1F708
:1031C00026960FB6F894DEBF0FBECDBFDF91CF912C
:1031D0001F910F91FF90EF900895E0E8F2E086E0F4
:1031E000DF011D928A95E9F710927E0210927D020E
:1031F00010927F020895EF92FF920F931F93CF9347
:10320000DF938B01682F11110AC0442329F0E82FA6
:10321000F0E0E85FFC4F6491762F862F75C0212F78
:1032200030E0E82FF0E0442321F0E85FFC4FE49128
:10323000F0E046E0049FC0011124CFEFD0E0BE01D2
:103240000E94BD2A4BEA4603C001479F900D1124FE
:10325000800F911D800F911D982F990F890FAE013E
:10326000421B530B4E9FD0014F9FB00D5E9FB00D80
:1032700011249B2F189FA0011124452F55278E0143
:10328000041B150B0E9FA0010F9F500D1E9F500D8C
:1032900011247E01E81AF108E29E8001E39E100DE0
:1032A000F29E100D1124212F3327C21BD30BCE9F6A
:1032B0009001CF9F300DDE9F300D112462307105DB
:1032C000A9F048F46115710569F061307105C9F420
:1032D0008B2F752F0DC06430710581F058F066306A
:1032E000710579F47E2F8B2F932F0DC0832F7B2FA9
:1032F0009E2F09C08E2F7B2F952F05C08E2F732FE9
:1033000002C07E2F852F692FDF91CF911F910F91E2
:10331000FF90EF90089541E00E94FB1808950E94ED
:103320008B190895CF93DF93762FE901682F842FAF
:103330000E948F19798368838A83DF91CF910895E2
:103340008091C402982F9695913021F0817082600F
:103350008093C402089588E090E00C94092BCF92EA
:10336000DF92EF92FF926B017C010E94A019B701DE
:10337000A60188E090E0FF90EF90DF90CF900C9452
:10338000272BE4ECF2E083E0808311828FEF8283CD
:1033900083831482A7E8B2E012968C91129783601F
:1033A00012968C9360817181828193810C94AF1904
:1033B0009091C802933018F49F5F9093C8028823BD
:1033C00051F06091C4027091C5028091C602909143
:1033D000C7020C94AF19089581E00C94D81990910C
:1033E000C802992319F091509093C802882351F094
:1033F0006091C4027091C5028091C6029091C7028B
:103400000C94AF19089581E00C94EF1970E00C94BE
:10341000611C60912E018091C40280FF0AC08091DE
:103420002D0123E0829FC001112487539D4F0C94EE
:10343000061A80912F0190913001891780F7E82FAB
:10344000F0E09F01220F331FE20FF31FE753FD4F00
:103450001182108212828F5FF0CFE4ECF2E0808163
:103460008E7F808360817181828193810E94AF19F8
:10347000E7E8F2E08281816082832FEF80E792E0CB
:10348000215080409040E1F700C000000C94091AE0
:10349000E4ECF2E080818E7F8083E7E8F2E08281D5
:1034A000816082832FEF80E792E02150804090403E
:1034B000E1F700C000000C94091A9091C40290FF3B
:1034C00016C090912F0120913001921770F4E92FCE
:1034D000F0E0DF01AA0FBB1FEA0FFB1FE753FD4F10
:1034E0008183608342839F5FF0CF0C94091A089513
:1034F000EF92FF920F931F93CF93DF9300D01F9211
:10350000CDB7DEB79091C40290FF3DC0E22E142FDC
:10351000062FF82EE92FE695F0E0E155FE4F808169
:10352000809387029E7F923059F49E012F5F3F4F18
:103530008F2D0E9492194B8169818A810E945D1AA8
:103540008091C502F81208C08091C602081304C019
:103550008091C702181729F08091890282608093B8
:103560008902F092C5020093C6021093C702EE20B2
:1035700051F06091C4027091C5028091C602909191
:10358000C7020E94AF190F900F900F90DF91CF915B
:103590001F910F91FF90EF900895E4ECF2E091817C
:1035A000282F4381628188E0890F0C94781A81E08A
:1035B0000C94CD1AE4ECF2E09181282F43816281D2
:1035C00088EF890F0C94781A81E00C94DA1AE4ECF5
:1035D000F2E0628121E1620F08F46FEF282F43814E
:1035E00081810C94781A81E00C94E71AE4ECF2E003
:1035F000628121E1621B08F460E0282F4381818110
:103600000C94781A81E00C94F61AE4ECF2E0438111
:1036100021E1420F08F44FEF282F628181810C9441
:10362000781A81E00C94051BE4ECF2E0438121E17F
:10363000421B08F440E0282F628181810C94781AA3
:1036400081E00C94141B20E00C94781A8091C40241
:1036500080FF1DC0817082608093C40280918902C6
:10366000816080938902662351F06091C402709159
:10367000C5028091C6029091C7020E94AF19409185
:10368000C7026091C6028091C5020C94231B089565
:10369000682F81E00C94261B81E00C94481B682F56
:1036A0009091C40296958FEF890F09F481E00C94F4
:1036B000261B81E00C944F1B61E00C94261BE4EC6C
:1036C000F2E080818160808386950C945C1B809100
:1036D000C40280FD0C942D1A0C945F1B60E00C94C6
:1036E000261B80918602811131C00E94120E811129
:1036F00004C00E94BA0E0E94C1190E94AB196093C7
:10370000C4027093C5028093C6029093C702809151
:1037100089028360809389026E7F61F40E94C119DF
:103720000E94AB196093C4027093C5028093C602D5
:103730009093C7020E94A0198091C40280FF03C029
:1037400086950E946E1B81E08093860208951092F8
:103750008902089525E0E4ECF2E0DC0101900D928D
:103760002A95E1F7209187023091880240918902E1
:10377000FC0125833683478308951F93CF93DF93FE
:10378000EC01162F8F8180FF0FC0888180FF0AC057
:103790008091C40281608093C402888186950E94D2
:1037A000261B02C00E94481A8F8181FF09C0212F69
:1037B0004B816A818981DF91CF911F910C94781A96
:1037C000DF91CF911F910895882311F0FA0101C074
:1037D000FB0109941F93CF93DF93FB011281111119
:1037E0006BC0EC010E942F0D8272CA3CFCE5DF0722
:1037F00009F450C0C0F4C63CECE5DE07E1F148F442
:10380000C43C9CE5D90759F178F5C33CDC4521F16E
:1038100021C0C83C9CE5D90799F1B8F547ED5AE1BC
:1038200064EE7AE125C0CE3CFCE5DF0709F441C037
:1038300050F4CC3CECE5DE0791F1B0F541E15BE101
:1038400060E27BE115C0C73D8CE5D807A8F1CE3515
:10385000DD4591F111E030C00E94671B2DC049E5A4
:103860005BE16CE47BE104C04CE45BE169E57BE196
:103870000E94E41B21C044EE5AE167ED7AE1F8CFE3
:1038800042E05BE163EF7AE1F3CF43EF5AE162E0BC
:103890007BE1EECF40E25BE161E17BE1E9CF43E038
:1038A0005AE16CEE79E1E4CF4CEE59E163E07AE164
:1038B000DFCF81E00E945C1B812FDF91CF911F91B0
:1038C0000895539A2BB1277F3BB138604FB7F894D6
:1038D000FC01CB01880F991F680F791F6E0F7F1FA6
:1038E000E617F70789F0819198E03BB9000000C026
:1038F00087FF2BB9880F000000C000C000C02BB9A3
:1039000000C09A9591F7ECCF4FBF8FE594E00197F7
:10391000F1F700C0000008950895FC01680F791FB9
:103920008FEF91E3E617F70771F02191822728E0E6
:1039300030E087FF03C0880F892701C0880F21501E
:103940003109B9F7EFCF0895CF93DF93EC01FB0175
:103950008281882309F43CC1C430FDE5DF0760F4AF
:10396000CB3F9CE5D90788F49E0122503C45243189
:10397000310508F02EC109C0C236EDE5DE0729F099
:10398000C63AFDE5DF0709F024C10E94250E909399
:10399000AD028093AC02C1318CE5D80709F4C6C0F2
:1039A00008F042C0C930ECE5DE0709F49BC000F521
:1039B000C5308CE5D80709F485C078F4C330ECE550
:1039C000DE0709F478C008F07AC0C230DC4509F09F
:1039D000F5C08091AC028160EFC0C7309CE5D9078B
:1039E00009F478C008F07AC08091AC028061E4C02C
:1039F000CD30FCE5DF0709F487C058F4CB309CE5F7
:103A0000D90709F479C008F07BC08091AC028860C6
:103A10006FC0CF30FCE5DF0709F480C008F082C03A
:103A20008091AC02877FC8C0CE3F9CE5D90709F4DE
:103A300071C000F5C531FCE5DF0709F485C068F405
:103A4000C3319CE5D90709F475C008F095C00E9400
:103A5000DC078091AC028F77AFC0CC3FFCE5DF077D
:103A6000A9F108F054C0CB3FDC4509F0A7C0809114
:103A7000AD0240C0C230EDE5DE0709F489C058F45C
:103A8000C1158DE5D80709F45AC008F069C08091C6
:103A9000AD0282602FC0C236EDE5DE0709F47CC0BE
:103AA000C63AFDE5DF0709F481C0C330DD4509F002
:103AB00085C080E06EC08091AC0282607DC0809144
:103AC000AC0216C08091AC02886076C08091AD02D5
:103AD00082604FC08091AC0280626EC08091AC0267
:103AE00080646AC00E94DC078091AC02806864C078
:103AF000846062C081603DC08091AC028E7F5CC0FA
:103B00008091AC028D7F58C08091AC0216C080912C
:103B1000AD0218C08091AD028D7F2BC08091AC02A8
:103B20008F7E4AC08091AC028F7D46C08091AC02EE
:103B30008F7B42C08091AC02877F8B7F3DC080919C
:103B4000AD028D7F8E7F15C08091AC0282FB222753
:103B500020F991E0922790FB82F990FB83F92CC029
:103B60008091AD02982F909591708E7F892B90FB5C
:103B700081F98093AD0222C00E94DC078091AC02E3
:103B800087FB222720F991E0922790FB87F914C048
:103B900081E00E94BC0E12C08091AC0284FB2227FF
:103BA00020F991E0922790FB84F906C08091AC0245
:103BB000982F909590FB80F98093AC028091AC0295
:103BC0009091AD020E94360E0E94DC0780E001C099
:103BD00081E0DF91CF910895893289F1F0F4843149
:103BE00071F1B0F4873009F077C081E080932C0147
:103BF00084E180932B018AE080932A018EE18093F7
:103C0000290188E08093260188E28093250164C021
:103C100092EE980F9A30F0F05FC0803509F444C0FE
:103C200028F48F3409F058C08AE03FC0813529F06C
:103C3000823509F051C081E038C08FEF36C08091E5
:103C40008C02882379F110928C0210928B021092D0
:103C50008A0242C08D5180938C02833099F038F4EF
:103C6000813069F08230D9F48BE291E00DC085306B
:103C700099F078F0863099F485E291E005C08CE205
:103C800091E002C08AE291E090938B0280938A02D5
:103C900023C089E291E0F8CF86E291E0F5CF10925F
:103CA0008C021AC080E0089586EFE0918A02F091BC
:103CB0008B02309789F02081082E000C990B820F1F
:103CC000911D8F3F910519F014F08FEF04C097FFFD
:103CD00002C0108201C0808381E008950F931F937A
:103CE00041E050E060E070E08A019B0104C0000FF9
:103CF000111F221F331F8A95D2F7C901B8010E94F4
:103D000034081F910F910C94DC078B3109F468C0C3
:103D100058F58B3009F486C078F4863009F445C034
:103D200020F4853009F44BC07FC0873009F44AC0C5
:103D3000883009F477C078C0803109F464C068F431
:103D40008E3009F071C08091490282FB222720F950
:103D500091E0922790FB82F94CC0863109F462C051
:103D6000893109F45FC060C08A32E1F060F48732C3
:103D700009F455C028F48E3108F456C08D5150C056
:103D80008932E9F051C0833450F48A3308F045C0D9
:103D9000853309F444C0883309F444C045C08334F2
:103DA000F1F142C00E94BA0E3DC080914902817F6C
:103DB0008E7F8093490281E080938D0208950E9456
:103DC0001F0330C080914902982F9095917090FB0D
:103DD00080F980934902911125C0897F877F10C0A7
:103DE0008091490281FB222720F991E0922790FBE4
:103DF00081F9809349029923A9F080914902816059
:103E0000809349020FC08091490283FB222720F949
:103E100091E0922790FB83F9ECCF895301C080E0B9
:103E20000E946E1E81E0089580E0089580E008956C
:103E30000C94161FCF93C82F80918D02813069F0AA
:103E400038F08230C1F58C2F0E94EC1D81E039C022
:103E50000E942F0D823289F504C00E942F0D8232FC
:103E600061F48C2F0E94181F811104C08C2F0E94B6
:103E7000851E1FC081E090E01CC08C2F0E94161F81
:103E8000811116C0C43189F058F4CB3089F0C031AB
:103E9000B1F482E080938D0288E30E94EC1D08C09B
:103EA000C93219F0C83321F00AC010928D0207C040
:103EB00081E0817006C010928D0280E002C080E037
:103EC000F8CFCF910895CF93DF9386319C4541F58C
:103ED000EB010E942F0D982F8A81209102013091D1
:103EE0000301882379F09A7A81E009F480E08093D5
:103EF0008E02911102C069E201C065E3C9010E940E
:103F0000BF220AC080918E02811102C069E201C005
:103F100065E3C9010E94C1220E94710D80E001C0C9
:103F200081E0DF91CF9108950F931F93CF93DF939B
:103F3000C42FD22FFC0182818823C9F040939102C3
:103F40000E9465239093900280938F0280E28C0FF1
:103F5000883008F057C0C77081E001C0880FCA954B
:103F6000EAF7DF91CF911F910F910C943905809161
:103F70009102481330C080918F02909190020E946C
:103F80007D23883C910538F510E21D0FCD17B9F05F
:103F900080E28C0F883040F4C77081E001C0880F48
:103FA000CA95EAF70E944005183028F581E09D2F58
:103FB000977001C0880F9A95EAF70E943905802F03
:103FC0000E9430051830F0F4D77081E001C0880FEE
:103FD000DA95EAF70AC080E28C0F883098F4C7704F
:103FE00081E001C0880FCA95EAF7DF91CF911F9158
:103FF0000F910C944005802FDF91CF911F910F916D
:104000000C943005DF91CF911F910F9108950F937C
:104010009C01CB01243F4CE5340731F188F4293D64
:10402000FCE53F07D9F02A3D4CE5340779F1283DFE
:104030003C45A9F506E221EE41EE68ED7CE52BC09A
:10404000263FFCE53F07E1F0A8F0273F3C4539F566
:1040500007E225EE46EE67EF7CE51DC007E225EEA0
:1040600045EE69ED7CE517C006E221EE40EE64EF17
:104070007CE511C007E225EE44EE65EF7CE50BC060
:1040800006E221EE42EE66EF7CE505C008E221E0A3
:1040900045EE6AED7CE50E94941F80E008C0FC01BB
:1040A0008281882319F01092910201C081E00F9162
:1040B00008958EE1489B02C08150E1F7489BFECFF6
:1040C0000895589880E28A95F1F7589A0895FC016E
:1040D0002AE02A95F1F728E090E080E031E040E125
:1040E0004A95F1F7880F489B02C08160932700C072
:1040F000000040E14A95F1F7215089F720E12A9527
:10410000F1F729B100C0000030E13A95F1F72170D4
:1041100092272081920F90830895EF92FF920F9340
:104120001F93CF93DF931F92CDB7DEB719828C0117
:104130007C01E60EF11C0E151F0551F00E9459205E
:10414000CE0101960E946720F80181938F01F3CF81
:1041500081E09981911180E00F90DF91CF911F91C3
:104160000F91FF90EF900895509A589A08955098A3
:10417000589AE89AE9E6F0E080818C7F8083089580
:10418000615091E001C0990F6A95EAF720E031E0B3
:10419000992361F0492F482319F0589A232701C029
:1041A000589840E24A95F1F79695F2CF222311F004
:1041B000589A01C0589880E28A95F1F75898089566
:1041C000FF920F931F93CF93DF93EC018C01060FA7
:1041D000111DC017D10741F0F9900E94612068E0DD
:1041E0008F2D0E94C020F5CFDF91CF911F910F91AD
:1041F000FF9008951F920F920FB60F9211240F9304
:104200001F932F933F934F935F936F937F938F935E
:104210009F93AF93BF93EF93FF93CF93DF931F923F
:10422000CDB7DEB719820E945920CE0101960E94B7
:104230006720082F069506950695902F9695957000
:10424000202F2570920F292F237096959695920F07
:10425000877089135FC0898181115CC0053008F0C7
:1042600059C080E18A95F1F7589A509A82E08A9570
:10427000F1F700C0589888E0089F80011124D80108
:10428000AB5FBE4F1696ED91FC9117973097A9F052
:104290006091AD017091AE0114962D913C911597EE
:1042A000260F371F11968D919C911297680F791FD9
:1042B00013964C9113978C910995F801EB5FFE4F83
:1042C0006381662351F08091AD019091AE0124810C
:1042D0003581820F931F0E94E0200E94612080E1BF
:1042E0008A95F1F758985098589A80E18A95F1F795
:1042F000F801EB5FFE4F6081662351F08091AD01C4
:104300009091AE0121813281820F931F0E948D20F6
:104310000E9459200F90DF91CF91FF91EF91BF91B3
:10432000AF919F918F917F916F915F914F913F914D
:104330002F911F910F910F900FBE0F901F90189506
:104340000F931F93CF93DF93853091050CF06DC0D1
:10435000EC01F894509A589885E08A95F1F700009E
:104360009C2F969595702C2F2570920F892F837016
:104370009695969523E0CC0FDD1F2A95E1F7980FCF
:104380008E01092B0E94612084E08A95F1F700C01C
:1043900068E0802F0E94C02080E18A95F1F7509854
:1043A000589A489902C000C0FCCF87E090E0489B33
:1043B00008C0019721F4509A589A789436C000C0EA
:1043C000F6CFFE01EB5FFE4F6381662381F08091A3
:1043D000AD019091AE0124813581820F931F0E941F
:1043E0008D20811104C0509A589A78941FC00E9461
:1043F000592080E28A95F1F75898509A80E18A9581
:10440000F1F7CB5FDE4F6881662351F08091AD01FB
:104410009091AE0129813A81820F931F0E94E02082
:104420000E946120789481E001C080E0DF91CF910B
:104430001F910F9108959093B3018093B201089555
:10444000909398028093970208950E94CF13811150
:1044500003C0809192020895E0919702F091980232
:10446000309721F00190F081E02D099480E00895CB
:10447000E0919702F0919802309721F00280F38149
:10448000E02D09940895E0919702F09198023097F9
:1044900039F022E0DC012C930480F581E02D0994B1
:1044A000089520919502309196022817390771F0EE
:1044B0009093960280939502E0919702F091980272
:1044C000309721F00680F781E02D0994089520911E
:1044D0009302309194022817390771F09093940257
:1044E00080939302E0919702F0919802309721F027
:1044F0000084F185E02D09940895FC01329697E03F
:1045000080E0915029F021912223D9F38F5FF9CFD8
:104510000895662349F0FC013296089621916217AE
:1045200029F0E817F907D1F780E0089581E00895B0
:104530009C01FC0132969FEF80E04191461789F083
:104540009F3F19F4411101C0982F8F5F8630A9F762
:104550009F3F39F0F901E90FF11D97FDFA9562834C
:10456000089508959C012A5F3F4FFC014281461344
:1045700001C01282019682179307B9F708950C942F
:1045800098220C94B222029626E0FC0111922A9500
:10459000E9F7089508950C94CA2283E08093990264
:1045A0000C94CB22811102C081E001C082E0809393
:1045B00099020C94CB220C94D22281E08093990230
:1045C0000C94CB220C94DD2208950C94E4220C94DC
:1045D000E5220C94E4220C94E4220C94E422CF9380
:1045E0000E94EB220E9444130E94E922C0E08C2F1B
:1045F0000E940512811104C0CF5FCA30C1F701C00B
:1046000081E0CF91089508951F920F920FB60F92F7
:1046100011248F939F93AF93BF9380919A0281113E
:1046200013C08091F3029091F402A091F502B09131
:10463000F6024196A11DB11D8093F3029093F402FE
:10464000A093F502B093F602BF91AF919F918F9125
:104650000F900FBE0F901F9018958091FB02843031
:1046600031F10E94870310929A0220E488E190E0E1
:104670000FB6F894A895809360000FBE2093600059
:1046800083B7817F846083BF83B7816083BF789461
:10469000889583B78E7F83BF0FB6F894A8958091D5
:1046A0006000886180936000109260000FBE0895E2
:1046B0000E94DC070C948B0382E084BD93E095BDDF
:1046C0009AEF97BD80936E0008952FB7F89480916C
:1046D000F3029091F402A091F502B091F6022FBF7F
:1046E00008952FB7F8946091F3027091F4028091CD
:1046F000F5029091F6022FBF08959C014FB7F894F0
:104700008091F3029091F402A091F502B091F6022B
:104710004FBF821B930B0895CF92DF92EF92FF92CF
:104720002FB7F894C090F302D090F402E090F50215
:10473000F090F6022FBFA7019601261B370B480BFE
:10474000590BCA01B901FF90EF90DF90CF90089507
:1047500078941F920F920FB60F9211248F939F930C
:10476000AF93BF938091F3029091F402A091F50270
:10477000B091F6020196A11DB11D8093F3029093B2
:10478000F402A093F502B093F602BF91AF919F910E
:104790008F910F900FBE0F901F90189587E797E7A6
:1047A00090930108809300089AE088E10FB6F8948E
:1047B000A895809360000FBE90936000FFCF80911A
:1047C000A6020895089522E02093E9002FEF30918A
:1047D000E800215035FD06C035ED3A95F1F70000AF
:1047E0002111F5CF2091E80025FF0BC040E050E0FB
:1047F00066E070E00E940D268091E8008E7780933D
:10480000E8000895CF93DF9321E02093E9002FEF94
:104810003091E800215035FD06C035ED3A95F1F7AD
:1048200000002111F5CF2091E80025FF14C0EC0114
:1048300040E050E068E070E00E940D268091E800C2
:104840008E778093E80088E0FE01AEE9B2E0019047
:104850000D928A95E1F7DF91CF91089580939B02A5
:1048600070939D0260939C028091FB02843001F55D
:1048700082E08093E9008FEF9091E800815095FDF0
:1048800006C095ED9A95F1F700008111F5CF809162
:10489000E80085FF0DC040E050E063E070E08BE988
:1048A00092E00E940D268091E8008E778093E800C8
:1048B0000895BC0184E00C942E24BC0183E00C9488
:1048C0002E248091FA02811109C00E949E270E9425
:1048D000FB278091E20084608093E20008951092AB
:1048E000FA0208950C94E2226091F70281E06111CE
:1048F00001C080E00C94CD229091FB0281E09430C5
:1049000009F080E06091F7020C94D22242E061EC61
:1049100081E00E94172742E261EC82E00E941727A3
:104920009091FB0281E0943009F080E06091F70201
:104930000C94DB228091FD02833009F461C030F4D5
:10494000813071F0823009F49AC008958A3009F4F8
:1049500086C08B3009F46CC0893009F0A8C020C033
:104960008091FC02813A09F0A2C08091E800877F23
:104970008093E8008091000390910103892B21F43A
:1049800068E08EE992E003C060E080E090E070E0D3
:104990000E9458268091E8008B778093E800089564
:1049A0008091FC02813209F082C0809100039091D5
:1049B0000103029708F07BC08091E800877F809315
:1049C000E8008091E80082FD05C08091FB02811122
:1049D000F8CF6DC02091F3008091F20090E0922B0F
:1049E000029731F48091F100813011F0863021F48A
:1049F0008091F1008093A6028091E8008B7753C0EC
:104A00008091FC02813A09F052C08091000390919C
:104A10000103892B09F04BC08091E800877F8093C8
:104A2000E8008091E80080FFFCCF80913E0136C015
:104A30008091FC028132D9F58091000390910103AD
:104A4000892BA9F58091E800877F8093E8000E9478
:104A50004C278091FE0280933E010C94DC078091EC
:104A6000FC02813221F58091E800877F8093E80085
:104A70000E944C278091FF028093A70208958091A5
:104A8000FC02813AA1F48091E800877F8093E800DE
:104A90008091E80080FFFCCF8091A7028093F10015
:104AA0008091E8008E778093E8000C944C2708955D
:104AB00084B7877F84BF0FB6F894A8958091600073
:104AC000886180936000109260000FBE90E080E8E3
:104AD0000FB6F89480936100909361000FBE0C9420
:104AE000DD220E949E270E94FB27E2EEF0E08081FB
:104AF0008460808378940C94902A82E391E00C94F3
:104B000020228091FB028530A9F48091FB02853040
:104B100079F40E942D238091F9028823B1F30E9439
:104B2000EF22882391F30E94F7250E94DC07EDCF46
:104B30000C945823089508950C949E25292F33270B
:104B400023303105C9F060F42130310581F0223085
:104B5000310509F044C08BE390E02AE434E043C01F
:104B600021323105E1F02232310549F138C082E1CC
:104B700090E025E834E037C099278130910549F06D
:104B800028F0029761F5E8E0F4E005C0E6E4F4E01F
:104B900002C0E0E3F4E0849190E09F0124C061153D
:104BA000710541F061307105D1F489E090E025E7AD
:104BB00034E019C089E090E02CE534E014C06115C0
:104BC000710541F06130710551F48BE790E027E900
:104BD00034E009C080E490E022E135E004C080E0E8
:104BE00090E020E030E0FA0131832083089580E1F5
:104BF00089BD82E189BD09B400FEFDCF8091D80056
:104C00008F7D8093D8008091E00082608093E000E7
:104C10008091E00081FDFCCF0895CF92DF92EF926A
:104C2000FF920F931F93CF93DF93EC018B017A01D7
:104C30000E946B27811133C0E114F10439F0F701B0
:104C400080819181081B190BC80FD91FC12CD12C51
:104C50000115110519F18091E80085FD16C08091BC
:104C6000E8008E778093E800E114F10449F0F70141
:104C700080819181C80ED91ED182C08285E00FC08B
:104C80000E946B27882321F30AC089918093F10049
:104C900001501109FFEFCF1ADF0ADACF80E0DF9170
:104CA000CF911F910F91FF90EF90DF90CF900895DB
:104CB00020910203309103032617370748F061154E
:104CC000710539F42091E8002E772093E80001C0A7
:104CD000B901FC0120E06115710579F18091FB02B9
:104CE0008823F1F18530F1F18091E80083FD3CC02B
:104CF0008091E80082FD2EC08091E80080FFEBCF1C
:104D00002091F3008091F20090E0922B61157105E3
:104D100051F08830910538F421912093F1006150D1
:104D200071090196F3CF21E0089709F020E0809106
:104D3000E8008E778093E800CECF2111CFCF0AC054
:104D40008091FB02882361F0853061F08091E8005A
:104D500083FD0AC08091E80082FFF2CF80E00895D1
:104D600082E0089583E0089581E008952091020390
:104D7000309103032617370748F06115710539F4A0
:104D80002091E8002E772093E80001C0B901FC01D2
:104D900020E06115710591F18091FB02882309F4EF
:104DA00040C0853009F43FC08091E80083FD3DC0DC
:104DB0008091E80082FD2FC08091E80080FFE9CF5C
:104DC0002091F3008091F20090E0922B6115710523
:104DD00059F08830910540F424912093F1003196E8
:104DE000615071090196F2CF21E0089709F020E0A7
:104DF0008091E8008E778093E800CBCF2111CCCF53
:104E00000AC08091FB02882361F0853061F08091B7
:104E1000E80083FD0AC08091E80082FFF2CF80E0C5
:104E2000089582E0089583E0089581E00895982F21
:104E3000973068F59093E900981739F07091EC007D
:104E40002091ED005091F00003C0242F762F50E008
:104E500021FD02C09F5FECCF3091EB003E7F30938D
:104E6000EB003091ED003D7F3093ED003091EB0091
:104E700031603093EB007093EC002093ED00509381
:104E8000F0002091EE0027FDE5CF80E008958F70BF
:104E90008093E90081E008958091FC0287FF11C0B2
:104EA0008091E80082FD05C08091FB028111F8CF5E
:104EB00011C08091E8008B770BC08091FB028823A2
:104EC00049F08091E80080FFF8CF8091E8008E776C
:104ED0008093E80008952091E4003091E50095E684
:104EE0004091EC00842F817040FF23C08091E80046
:104EF00080FD1DC08091FB02882399F0853099F0D8
:104F00008091EB0085FD11C04091E4005091E500D7
:104F10002417350729F3915011F09A01E1CF84E06D
:104F2000089582E0089583E0089581E0089580E087
:104F300008954091E80042FFDDCF08950E940C28BB
:104F40000E941428E0EEF0E0808181608083E8ED2B
:104F5000F0E080818F77808319BCA7EDB0E08C9161
:104F60008E7F8C9380818F7E80831092FA020895C9
:104F70000F931F93CF93DF930E940C280E94142855
:104F8000C8EDD0E088818F778883888180688883A6
:104F900088818F7D888319BC1092FB021092F702E2
:104FA0001092F9021092F80200EE10E0F8018081F0
:104FB0008B7F808388818160888342E060E080E02D
:104FC0000E941727E1EEF0E080818E7F8083E2EE81
:104FD000F0E0808181608083808188608083F80137
:104FE00080818E7F8083888180618883DF91CF91EB
:104FF0001F910F910895E8EDF0E080818F7E80830E
:10500000E7EDF0E080818160808384E082BF81E011
:105010008093FA020C94B827E8EDF0E080818E7F4F
:1050200080831092E20008951092DA001092E1005D
:1050300008951F920F920FB60F9211242F933F9352
:105040004F935F936F937F938F939F93AF93BF9390
:10505000EF93FF938091E10082FF0BC08091E2000B
:1050600082FF07C08091E1008B7F8093E1000E9466
:105070008F2A8091DA0080FF1FC08091D80080FFC6
:105080001BC08091DA008E7F8093DA008091D90076
:1050900080FF0DC080E189BD82E189BD09B400FEB9
:1050A000FDCF81E08093FB020E94612405C019BC02
:1050B0001092FB020E946F248091E10080FF19C0D2
:1050C0008091E20080FF15C08091E2008E7F809386
:1050D000E2008091E20080618093E2008091D8003C
:1050E00080628093D80019BC85E08093FB020E9407
:1050F00074248091E10084FF30C08091E20084FF3D
:105100002CC080E189BD82E189BD09B400FEFDCFDC
:105110008091D8008F7D8093D8008091E1008F7EB0
:105120008093E1008091E2008F7E8093E200809185
:10513000E20081608093E2008091F702882311F001
:1051400084E007C08091E30087FD02C081E001C0D8
:1051500083E08093FB020E947C248091E10083FF26
:1051600029C08091E20083FF25C08091E100877F04
:105170008093E10082E08093FB021092F70280911D
:10518000E1008E7F8093E1008091E2008E7F80932A
:10519000E2008091E20080618093E20042E060E002
:1051A00080E00E9417278091F00088608093F000D3
:1051B0000E947224FF91EF91BF91AF919F918F91C7
:1051C0007F916F915F914F913F912F910F900FBE03
:1051D0000F901F9018951F920F920FB60F921124E7
:1051E0002F933F934F935F936F937F938F939F93EF
:1051F000AF93BF93CF93DF93EF93FF93C091E900F9
:10520000CF708091EC00D82FD17080FDD0E8109243
:10521000E9008091F000877F8093F00078940E94ED
:105220002F291092E9008091F00088608093F000AF
:10523000CD2BCF70C093E900FF91EF91DF91CF911B
:10524000BF91AF919F918F917F916F915F914F919E
:105250003F912F910F900FBE0F901F9018951F93A5
:10526000CF93DF93CDB7DEB7AA970FB6F894DEBF22
:105270000FBECDBFECEFF2E08091F100819323E00F
:10528000E430F207C9F70E949A248091E80083FF76
:105290002EC18091FC029091FD02492F50E04A30CE
:1052A000510508F024C1FA01EE59FF4F0C94E52A8C
:1052B000803821F0823809F01AC108C08091F802C4
:1052C0009091F902992389F082600FC080910003C8
:1052D0008F70873008F00BC18093E9008091EB005C
:1052E00085FB882780F91092E9009091E800977F6C
:1052F0009093E8008093F1001092F100D1C0282F24
:105300002D7F09F0F4C0882319F0823061F0EFC0DE
:105310008091FE02813009F0EAC0933009F080E00C
:105320008093F9022EC08091FE0281112AC08091E3
:1053300000038F702FEF280F263008F0D8C080931D
:10534000E9002091EB0020FF1CC0933021F48091F4
:10535000EB00806214C09091EB0090619093EB00A1
:1053600021E030E0A90102C0440F551F8A95E2F701
:105370004093EA001092EA008091EB0088608093ED
:10538000EB001092E9008091E800877F8093E800AD
:105390000E944C27ACC08111AAC01091FE021F7759
:1053A0008091E3008078812B8093E3008091E80076
:1053B000877F8093E8000E944C278091E80080FF5F
:1053C000FCCF8091E30080688093E300111102C05C
:1053D00082E001C083E08093FB0289C08058823064
:1053E00008F085C08091FE029091FF028C3D53E051
:1053F000950779F583E08A838AE289834FB7F89429
:10540000DE01139620E03EE051E2E32FF0E05093FE
:105410005700E49120FF03C0E295EF703F5FEF700B
:105420008E2F90E0EA3010F0C79601C0C0968D93A1
:105430009D932F5F243149F74FBF8091E800877F0C
:105440008093E8006AE270E0CE0101960E9458263F
:1054500016C06091000370910103AE014F5F5F4F72
:105460000E949C25BC01892B09F441C09091E80061
:10547000977F9093E80089819A810E94B626809157
:10548000E8008B778093E80032C0803881F5809106
:10549000E800877F8093E8008091F7028093F10015
:1054A0008091E8008E7772CF811121C08091FE0239
:1054B0009091FF0299270297D4F48091E800877FAA
:1054C0008093E8008091FE028093F7020E944C27AF
:1054D0008091F702811106C08091E30087FD02C030
:1054E00081E001C084E08093FB020E9486248091C9
:1054F000E80083FF0AC08091E800877F8093E8007E
:105500008091EB0080628093EB00AA960FB6F8942E
:10551000DEBF0FBECDBFDF91CF911F9108950895DB
:10552000CF938091FB028823A1F0C091E900CF7056
:105530009091EC00892F817090FD80E8C82B10922B
:10554000E9008091E80083FD0E942F29CF70C0936D
:10555000E900CF9108950E949E271092FB020895C2
:10556000E8EDF0E08081806180838AE18A95F1F73F
:1055700000C08091D90081700895AA1BBB1B51E126
:1055800007C0AA1FBB1FA617B70710F0A61BB70BB3
:10559000881F991F5A95A9F780959095BC01CD0158
:1055A000089597FB072E16F4009407D077FD09D0D5
:1055B0000E94BD2A07FC05D03EF4909581959F4F2F
:1055C0000895709561957F4F0895EE0FFF1F059028
:1055D000F491E02D0994FB01DC0104C08D91019050
:1055E000801921F441505040C8F7881B990B089549
:1055F000FB01DC0102C001900D9241505040D8F7F0
:105600000895F999FECF92BD81BDF89A992780B58A
:105610000895A6E1B0E044E050E00C943B2BA8E1F3
:10562000B0E042E050E00C943B2B262FF999FECFDE
:1056300092BD81BDF89A019700B4021639F01FBAE5
:1056400020BD0FB6F894FA9AF99A0FBE0895039602
:10565000272F0E94162B0E94152B252F0E94162BF8
:10566000242F0C94162B0196272F0E94162B0C9496
:10567000152BDC01CB01FC01F999FECF06C0F2BD70
:10568000E1BDF89A319600B40D9241505040B8F700
:065690000895F894FFCF1D
:10569600C8002D020100000001000000000000000B
:1056A60005010000000406000000000000080A00D2
:1056B6000000000000280850011E0A1401000E0018
:1056C6000E0EDF230224E3235D245924E22301E2A4
:1056D60000E900EA00B500B600B700CD008301CCB2
:1056E600008A019201940121022302240225022646
:1056F6000227022A02B300B4006F00700081828381
:10570600E200E900EA00B500B600B700CD0083016B
:10571600CC008A019201940121022302240225026F
:10572600260227022A02B300B4006F0070008182AD
:1057360083F5F6F7313332369497C6343552020084
:02574600010060
:00000001FF
